{
	"docs.chain.link/samples/VRF/VRFv2Consumer.sol": {
		"RandomNumberConsumer": {
			"abi": [
				{
					"inputs": [],
					"stateMutability": "nonpayable",
					"type": "constructor"
				},
				{
					"inputs": [],
					"name": "getRandomNumber",
					"outputs": [
						{
							"internalType": "bytes32",
							"name": "requestId",
							"type": "bytes32"
						}
					],
					"stateMutability": "nonpayable",
					"type": "function"
				},
				{
					"inputs": [
						{
							"internalType": "bytes32",
							"name": "requestId",
							"type": "bytes32"
						},
						{
							"internalType": "uint256",
							"name": "randomness",
							"type": "uint256"
						}
					],
					"name": "rawFulfillRandomness",
					"outputs": [],
					"stateMutability": "nonpayable",
					"type": "function"
				}
			],
			"devdoc": {
				"kind": "dev",
				"methods": {},
				"version": 1
			},
			"evm": {
				"assembly": "    /* \"docs.chain.link/samples/VRF/VRFv2Consumer.sol\":118:746  contract RandomNumberConsumer is VRFConsumerBase {... */\n  mstore(0x40, 0xc0)\n    /* \"docs.chain.link/samples/VRF/VRFv2Consumer.sol\":238:486  constructor() VRFConsumerBase(0xdD3782915140c8f3b190B5D67eAc6dc5760C46E9, 0xa36085F69e2889c224210F603D836748e7dC0088) public {... */\n  callvalue\n  dup1\n  iszero\n  tag_1\n  jumpi\n  0x00\n  dup1\n  revert\ntag_1:\n  pop\n    /* \"docs.chain.link/samples/VRF/VRFv2Consumer.sol\":268:310  0xdD3782915140c8f3b190B5D67eAc6dc5760C46E9 */\n  0xdd3782915140c8f3b190b5d67eac6dc5760c46e9\n    /* \"docs.chain.link/samples/VRF/VRFv2Consumer.sol\":312:354  0xa36085F69e2889c224210F603D836748e7dC0088 */\n  0xa36085f69e2889c224210f603d836748e7dc0088\n    /* \"@chainlink/contracts/src/v0.8/VRFConsumerBase.sol\":9323:9338  _vrfCoordinator */\n  dup2\n    /* \"@chainlink/contracts/src/v0.8/VRFConsumerBase.sol\":9306:9338  vrfCoordinator = _vrfCoordinator */\n  0xffffffffffffffffffffffffffffffffffffffff\n  and\n  0xa0\n  dup2\n  0xffffffffffffffffffffffffffffffffffffffff\n  and\n  dup2\n  mstore\n  pop\n  pop\n    /* \"@chainlink/contracts/src/v0.8/VRFConsumerBase.sol\":9370:9375  _link */\n  dup1\n    /* \"@chainlink/contracts/src/v0.8/VRFConsumerBase.sol\":9344:9376  LINK = LinkTokenInterface(_link) */\n  0xffffffffffffffffffffffffffffffffffffffff\n  and\n  0x80\n  dup2\n  0xffffffffffffffffffffffffffffffffffffffff\n  and\n  dup2\n  mstore\n  pop\n  pop\n    /* \"@chainlink/contracts/src/v0.8/VRFConsumerBase.sol\":9248:9381  constructor(address _vrfCoordinator, address _link) {... */\n  pop\n  pop\n    /* \"docs.chain.link/samples/VRF/VRFv2Consumer.sol\":383:449  0x6c3699283bda56ad74f6b855546325b68d482e983852a7a82979cc4807b641f4 */\n  0x6c3699283bda56ad74f6b855546325b68d482e983852a7a82979cc4807b641f4\n    /* \"docs.chain.link/samples/VRF/VRFv2Consumer.sol\":373:449  keyHash = 0x6c3699283bda56ad74f6b855546325b68d482e983852a7a82979cc4807b641f4 */\n  0x00\n  shl\n    /* \"docs.chain.link/samples/VRF/VRFv2Consumer.sol\":373:380  keyHash */\n  0x01\n    /* \"docs.chain.link/samples/VRF/VRFv2Consumer.sol\":373:449  keyHash = 0x6c3699283bda56ad74f6b855546325b68d482e983852a7a82979cc4807b641f4 */\n  dup2\n  swap1\n  sstore\n  pop\n    /* \"docs.chain.link/samples/VRF/VRFv2Consumer.sol\":465:478  0.1 * 10 **18 */\n  0x016345785d8a0000\n    /* \"docs.chain.link/samples/VRF/VRFv2Consumer.sol\":459:462  fee */\n  0x02\n    /* \"docs.chain.link/samples/VRF/VRFv2Consumer.sol\":459:478  fee = 0.1 * 10 **18 */\n  dup2\n  swap1\n  sstore\n  pop\n    /* \"docs.chain.link/samples/VRF/VRFv2Consumer.sol\":118:746  contract RandomNumberConsumer is VRFConsumerBase {... */\n  mload(0x80)\n  mload(0xa0)\n  codecopy(0x00, dataOffset(sub_0), dataSize(sub_0))\n  0x00\n  assignImmutable(\"0x6dbb33232cde86c8a04f90a8bed9fc1c5ef520188a14538d96eb100d69bc2a94\")\n  0x00\n  assignImmutable(\"0xb2219b801710730437d0358146c829b62297a059eceaa0b40b27aea2daecf595\")\n  return(0x00, dataSize(sub_0))\nstop\n\nsub_0: assembly {\n        /* \"docs.chain.link/samples/VRF/VRFv2Consumer.sol\":118:746  contract RandomNumberConsumer is VRFConsumerBase {... */\n      mstore(0x40, 0x80)\n      callvalue\n      dup1\n      iszero\n      tag_1\n      jumpi\n      0x00\n      dup1\n      revert\n    tag_1:\n      pop\n      jumpi(tag_2, lt(calldatasize, 0x04))\n      shr(0xe0, calldataload(0x00))\n      dup1\n      0x94985ddd\n      eq\n      tag_3\n      jumpi\n      dup1\n      0xdbdff2c1\n      eq\n      tag_4\n      jumpi\n    tag_2:\n      0x00\n      dup1\n      revert\n        /* \"@chainlink/contracts/src/v0.8/VRFConsumerBase.sol\":9576:9783  function rawFulfillRandomness(bytes32 requestId, uint256 randomness) external {... */\n    tag_3:\n      tag_5\n      0x04\n      dup1\n      calldatasize\n      sub\n      dup2\n      add\n      swap1\n      tag_6\n      swap2\n      swap1\n      tag_7\n      jump\t// in\n    tag_6:\n      tag_8\n      jump\t// in\n    tag_5:\n      stop\n        /* \"docs.chain.link/samples/VRF/VRFv2Consumer.sol\":492:609  function getRandomNumber() public returns (bytes32 requestId) {... */\n    tag_4:\n      tag_9\n      tag_10\n      jump\t// in\n    tag_9:\n      mload(0x40)\n      tag_11\n      swap2\n      swap1\n      tag_12\n      jump\t// in\n    tag_11:\n      mload(0x40)\n      dup1\n      swap2\n      sub\n      swap1\n      return\n        /* \"@chainlink/contracts/src/v0.8/VRFConsumerBase.sol\":9576:9783  function rawFulfillRandomness(bytes32 requestId, uint256 randomness) external {... */\n    tag_8:\n        /* \"@chainlink/contracts/src/v0.8/VRFConsumerBase.sol\":9682:9696  vrfCoordinator */\n      immutable(\"0x6dbb33232cde86c8a04f90a8bed9fc1c5ef520188a14538d96eb100d69bc2a94\")\n        /* \"@chainlink/contracts/src/v0.8/VRFConsumerBase.sol\":9668:9696  msg.sender == vrfCoordinator */\n      0xffffffffffffffffffffffffffffffffffffffff\n      and\n        /* \"@chainlink/contracts/src/v0.8/VRFConsumerBase.sol\":9668:9678  msg.sender */\n      caller\n        /* \"@chainlink/contracts/src/v0.8/VRFConsumerBase.sol\":9668:9696  msg.sender == vrfCoordinator */\n      0xffffffffffffffffffffffffffffffffffffffff\n      and\n      eq\n        /* \"@chainlink/contracts/src/v0.8/VRFConsumerBase.sol\":9660:9732  require(msg.sender == vrfCoordinator, \"Only VRFCoordinator can fulfill\") */\n      tag_14\n      jumpi\n      mload(0x40)\n      0x08c379a000000000000000000000000000000000000000000000000000000000\n      dup2\n      mstore\n      0x04\n      add\n      tag_15\n      swap1\n      tag_16\n      jump\t// in\n    tag_15:\n      mload(0x40)\n      dup1\n      swap2\n      sub\n      swap1\n      revert\n    tag_14:\n        /* \"@chainlink/contracts/src/v0.8/VRFConsumerBase.sol\":9738:9778  fulfillRandomness(requestId, randomness) */\n      tag_17\n        /* \"@chainlink/contracts/src/v0.8/VRFConsumerBase.sol\":9756:9765  requestId */\n      dup3\n        /* \"@chainlink/contracts/src/v0.8/VRFConsumerBase.sol\":9767:9777  randomness */\n      dup3\n        /* \"@chainlink/contracts/src/v0.8/VRFConsumerBase.sol\":9738:9755  fulfillRandomness */\n      tag_18\n        /* \"@chainlink/contracts/src/v0.8/VRFConsumerBase.sol\":9738:9778  fulfillRandomness(requestId, randomness) */\n      jump\t// in\n    tag_17:\n        /* \"@chainlink/contracts/src/v0.8/VRFConsumerBase.sol\":9576:9783  function rawFulfillRandomness(bytes32 requestId, uint256 randomness) external {... */\n      pop\n      pop\n      jump\t// out\n        /* \"docs.chain.link/samples/VRF/VRFv2Consumer.sol\":492:609  function getRandomNumber() public returns (bytes32 requestId) {... */\n    tag_10:\n        /* \"docs.chain.link/samples/VRF/VRFv2Consumer.sol\":535:552  bytes32 requestId */\n      0x00\n        /* \"docs.chain.link/samples/VRF/VRFv2Consumer.sol\":571:602  requestRandomness(keyHash, fee) */\n      tag_20\n        /* \"docs.chain.link/samples/VRF/VRFv2Consumer.sol\":589:596  keyHash */\n      sload(0x01)\n        /* \"docs.chain.link/samples/VRF/VRFv2Consumer.sol\":598:601  fee */\n      sload(0x02)\n        /* \"docs.chain.link/samples/VRF/VRFv2Consumer.sol\":571:588  requestRandomness */\n      tag_21\n        /* \"docs.chain.link/samples/VRF/VRFv2Consumer.sol\":571:602  requestRandomness(keyHash, fee) */\n      jump\t// in\n    tag_20:\n        /* \"docs.chain.link/samples/VRF/VRFv2Consumer.sol\":564:602  return requestRandomness(keyHash, fee) */\n      swap1\n      pop\n        /* \"docs.chain.link/samples/VRF/VRFv2Consumer.sol\":492:609  function getRandomNumber() public returns (bytes32 requestId) {... */\n      swap1\n      jump\t// out\n        /* \"docs.chain.link/samples/VRF/VRFv2Consumer.sol\":615:741  function fulfillRandomness(bytes32 requestId, uint256 randomness) internal override {... */\n    tag_18:\n        /* \"docs.chain.link/samples/VRF/VRFv2Consumer.sol\":724:734  randomness */\n      dup1\n        /* \"docs.chain.link/samples/VRF/VRFv2Consumer.sol\":709:721  randomResult */\n      0x03\n        /* \"docs.chain.link/samples/VRF/VRFv2Consumer.sol\":709:734  randomResult = randomness */\n      dup2\n      swap1\n      sstore\n      pop\n        /* \"docs.chain.link/samples/VRF/VRFv2Consumer.sol\":615:741  function fulfillRandomness(bytes32 requestId, uint256 randomness) internal override {... */\n      pop\n      pop\n      jump\t// out\n        /* \"@chainlink/contracts/src/v0.8/VRFConsumerBase.sol\":7732:8752  function requestRandomness(bytes32 _keyHash, uint256 _fee) internal returns (bytes32 requestId) {... */\n    tag_21:\n        /* \"@chainlink/contracts/src/v0.8/VRFConsumerBase.sol\":7809:7826  bytes32 requestId */\n      0x00\n        /* \"@chainlink/contracts/src/v0.8/VRFConsumerBase.sol\":7834:7838  LINK */\n      immutable(\"0xb2219b801710730437d0358146c829b62297a059eceaa0b40b27aea2daecf595\")\n        /* \"@chainlink/contracts/src/v0.8/VRFConsumerBase.sol\":7834:7854  LINK.transferAndCall */\n      0xffffffffffffffffffffffffffffffffffffffff\n      and\n      0x4000aea0\n        /* \"@chainlink/contracts/src/v0.8/VRFConsumerBase.sol\":7855:7869  vrfCoordinator */\n      immutable(\"0x6dbb33232cde86c8a04f90a8bed9fc1c5ef520188a14538d96eb100d69bc2a94\")\n        /* \"@chainlink/contracts/src/v0.8/VRFConsumerBase.sol\":7871:7875  _fee */\n      dup5\n        /* \"@chainlink/contracts/src/v0.8/VRFConsumerBase.sol\":7888:7896  _keyHash */\n      dup7\n        /* \"@chainlink/contracts/src/v0.8/VRFConsumerBase.sol\":6589:6590  0 */\n      0x00\n        /* \"@chainlink/contracts/src/v0.8/VRFConsumerBase.sol\":7877:7920  abi.encode(_keyHash, USER_SEED_PLACEHOLDER) */\n      add(0x20, mload(0x40))\n      tag_24\n      swap3\n      swap2\n      swap1\n      tag_25\n      jump\t// in\n    tag_24:\n      mload(0x40)\n      0x20\n      dup2\n      dup4\n      sub\n      sub\n      dup2\n      mstore\n      swap1\n      0x40\n      mstore\n        /* \"@chainlink/contracts/src/v0.8/VRFConsumerBase.sol\":7834:7921  LINK.transferAndCall(vrfCoordinator, _fee, abi.encode(_keyHash, USER_SEED_PLACEHOLDER)) */\n      mload(0x40)\n      dup5\n      0xffffffff\n      and\n      0xe0\n      shl\n      dup2\n      mstore\n      0x04\n      add\n      tag_26\n      swap4\n      swap3\n      swap2\n      swap1\n      tag_27\n      jump\t// in\n    tag_26:\n      0x20\n      mload(0x40)\n      dup1\n      dup4\n      sub\n      dup2\n      0x00\n      dup8\n      gas\n      call\n      iszero\n      dup1\n      iszero\n      tag_29\n      jumpi\n      returndatasize\n      0x00\n      dup1\n      returndatacopy\n      revert(0x00, returndatasize)\n    tag_29:\n      pop\n      pop\n      pop\n      pop\n      mload(0x40)\n      returndatasize\n      not(0x1f)\n      0x1f\n      dup3\n      add\n      and\n      dup3\n      add\n      dup1\n      0x40\n      mstore\n      pop\n      dup2\n      add\n      swap1\n      tag_30\n      swap2\n      swap1\n      tag_31\n      jump\t// in\n    tag_30:\n      pop\n        /* \"@chainlink/contracts/src/v0.8/VRFConsumerBase.sol\":8152:8167  uint256 vRFSeed */\n      0x00\n        /* \"@chainlink/contracts/src/v0.8/VRFConsumerBase.sol\":8170:8252  makeVRFInputSeed(_keyHash, USER_SEED_PLACEHOLDER, address(this), nonces[_keyHash]) */\n      tag_32\n        /* \"@chainlink/contracts/src/v0.8/VRFConsumerBase.sol\":8187:8195  _keyHash */\n      dup5\n        /* \"@chainlink/contracts/src/v0.8/VRFConsumerBase.sol\":6589:6590  0 */\n      0x00\n        /* \"@chainlink/contracts/src/v0.8/VRFConsumerBase.sol\":8228:8232  this */\n      address\n        /* \"@chainlink/contracts/src/v0.8/VRFConsumerBase.sol\":8235:8241  nonces */\n      0x00\n        /* \"@chainlink/contracts/src/v0.8/VRFConsumerBase.sol\":8235:8251  nonces[_keyHash] */\n      dup1\n        /* \"@chainlink/contracts/src/v0.8/VRFConsumerBase.sol\":8242:8250  _keyHash */\n      dup10\n        /* \"@chainlink/contracts/src/v0.8/VRFConsumerBase.sol\":8235:8251  nonces[_keyHash] */\n      dup2\n      mstore\n      0x20\n      add\n      swap1\n      dup2\n      mstore\n      0x20\n      add\n      0x00\n      keccak256\n      sload\n        /* \"@chainlink/contracts/src/v0.8/VRFConsumerBase.sol\":8170:8186  makeVRFInputSeed */\n      tag_33\n        /* \"@chainlink/contracts/src/v0.8/VRFConsumerBase.sol\":8170:8252  makeVRFInputSeed(_keyHash, USER_SEED_PLACEHOLDER, address(this), nonces[_keyHash]) */\n      jump\t// in\n    tag_32:\n        /* \"@chainlink/contracts/src/v0.8/VRFConsumerBase.sol\":8152:8252  uint256 vRFSeed = makeVRFInputSeed(_keyHash, USER_SEED_PLACEHOLDER, address(this), nonces[_keyHash]) */\n      swap1\n      pop\n        /* \"@chainlink/contracts/src/v0.8/VRFConsumerBase.sol\":8701:8702  1 */\n      0x01\n        /* \"@chainlink/contracts/src/v0.8/VRFConsumerBase.sol\":8682:8688  nonces */\n      0x00\n        /* \"@chainlink/contracts/src/v0.8/VRFConsumerBase.sol\":8682:8698  nonces[_keyHash] */\n      dup1\n        /* \"@chainlink/contracts/src/v0.8/VRFConsumerBase.sol\":8689:8697  _keyHash */\n      dup7\n        /* \"@chainlink/contracts/src/v0.8/VRFConsumerBase.sol\":8682:8698  nonces[_keyHash] */\n      dup2\n      mstore\n      0x20\n      add\n      swap1\n      dup2\n      mstore\n      0x20\n      add\n      0x00\n      keccak256\n      sload\n        /* \"@chainlink/contracts/src/v0.8/VRFConsumerBase.sol\":8682:8702  nonces[_keyHash] + 1 */\n      tag_34\n      swap2\n      swap1\n      tag_35\n      jump\t// in\n    tag_34:\n        /* \"@chainlink/contracts/src/v0.8/VRFConsumerBase.sol\":8663:8669  nonces */\n      0x00\n        /* \"@chainlink/contracts/src/v0.8/VRFConsumerBase.sol\":8663:8679  nonces[_keyHash] */\n      dup1\n        /* \"@chainlink/contracts/src/v0.8/VRFConsumerBase.sol\":8670:8678  _keyHash */\n      dup7\n        /* \"@chainlink/contracts/src/v0.8/VRFConsumerBase.sol\":8663:8679  nonces[_keyHash] */\n      dup2\n      mstore\n      0x20\n      add\n      swap1\n      dup2\n      mstore\n      0x20\n      add\n      0x00\n      keccak256\n        /* \"@chainlink/contracts/src/v0.8/VRFConsumerBase.sol\":8663:8702  nonces[_keyHash] = nonces[_keyHash] + 1 */\n      dup2\n      swap1\n      sstore\n      pop\n        /* \"@chainlink/contracts/src/v0.8/VRFConsumerBase.sol\":8715:8747  makeRequestId(_keyHash, vRFSeed) */\n      tag_36\n        /* \"@chainlink/contracts/src/v0.8/VRFConsumerBase.sol\":8729:8737  _keyHash */\n      dup5\n        /* \"@chainlink/contracts/src/v0.8/VRFConsumerBase.sol\":8739:8746  vRFSeed */\n      dup3\n        /* \"@chainlink/contracts/src/v0.8/VRFConsumerBase.sol\":8715:8728  makeRequestId */\n      tag_37\n        /* \"@chainlink/contracts/src/v0.8/VRFConsumerBase.sol\":8715:8747  makeRequestId(_keyHash, vRFSeed) */\n      jump\t// in\n    tag_36:\n        /* \"@chainlink/contracts/src/v0.8/VRFConsumerBase.sol\":8708:8747  return makeRequestId(_keyHash, vRFSeed) */\n      swap2\n      pop\n      pop\n        /* \"@chainlink/contracts/src/v0.8/VRFConsumerBase.sol\":7732:8752  function requestRandomness(bytes32 _keyHash, uint256 _fee) internal returns (bytes32 requestId) {... */\n      swap3\n      swap2\n      pop\n      pop\n      jump\t// out\n        /* \"@chainlink/contracts/src/v0.8/VRFRequestIDBase.sol\":796:1036  function makeVRFInputSeed(... */\n    tag_33:\n        /* \"@chainlink/contracts/src/v0.8/VRFRequestIDBase.sol\":938:945  uint256 */\n      0x00\n        /* \"@chainlink/contracts/src/v0.8/VRFRequestIDBase.sol\":989:997  _keyHash */\n      dup5\n        /* \"@chainlink/contracts/src/v0.8/VRFRequestIDBase.sol\":999:1008  _userSeed */\n      dup5\n        /* \"@chainlink/contracts/src/v0.8/VRFRequestIDBase.sol\":1010:1020  _requester */\n      dup5\n        /* \"@chainlink/contracts/src/v0.8/VRFRequestIDBase.sol\":1022:1028  _nonce */\n      dup5\n        /* \"@chainlink/contracts/src/v0.8/VRFRequestIDBase.sol\":978:1029  abi.encode(_keyHash, _userSeed, _requester, _nonce) */\n      add(0x20, mload(0x40))\n      tag_39\n      swap5\n      swap4\n      swap3\n      swap2\n      swap1\n      tag_40\n      jump\t// in\n    tag_39:\n      mload(0x40)\n      0x20\n      dup2\n      dup4\n      sub\n      sub\n      dup2\n      mstore\n      swap1\n      0x40\n      mstore\n        /* \"@chainlink/contracts/src/v0.8/VRFRequestIDBase.sol\":968:1030  keccak256(abi.encode(_keyHash, _userSeed, _requester, _nonce)) */\n      dup1\n      mload\n      swap1\n      0x20\n      add\n      keccak256\n        /* \"@chainlink/contracts/src/v0.8/VRFRequestIDBase.sol\":960:1031  uint256(keccak256(abi.encode(_keyHash, _userSeed, _requester, _nonce))) */\n      0x00\n      shr\n        /* \"@chainlink/contracts/src/v0.8/VRFRequestIDBase.sol\":953:1031  return uint256(keccak256(abi.encode(_keyHash, _userSeed, _requester, _nonce))) */\n      swap1\n      pop\n        /* \"@chainlink/contracts/src/v0.8/VRFRequestIDBase.sol\":796:1036  function makeVRFInputSeed(... */\n      swap5\n      swap4\n      pop\n      pop\n      pop\n      pop\n      jump\t// out\n        /* \"@chainlink/contracts/src/v0.8/VRFRequestIDBase.sol\":1416:1582  function makeRequestId(bytes32 _keyHash, uint256 _vRFInputSeed) internal pure returns (bytes32) {... */\n    tag_37:\n        /* \"@chainlink/contracts/src/v0.8/VRFRequestIDBase.sol\":1503:1510  bytes32 */\n      0x00\n        /* \"@chainlink/contracts/src/v0.8/VRFRequestIDBase.sol\":1552:1560  _keyHash */\n      dup3\n        /* \"@chainlink/contracts/src/v0.8/VRFRequestIDBase.sol\":1562:1575  _vRFInputSeed */\n      dup3\n        /* \"@chainlink/contracts/src/v0.8/VRFRequestIDBase.sol\":1535:1576  abi.encodePacked(_keyHash, _vRFInputSeed) */\n      add(0x20, mload(0x40))\n      tag_42\n      swap3\n      swap2\n      swap1\n      tag_43\n      jump\t// in\n    tag_42:\n      mload(0x40)\n      0x20\n      dup2\n      dup4\n      sub\n      sub\n      dup2\n      mstore\n      swap1\n      0x40\n      mstore\n        /* \"@chainlink/contracts/src/v0.8/VRFRequestIDBase.sol\":1525:1577  keccak256(abi.encodePacked(_keyHash, _vRFInputSeed)) */\n      dup1\n      mload\n      swap1\n      0x20\n      add\n      keccak256\n        /* \"@chainlink/contracts/src/v0.8/VRFRequestIDBase.sol\":1518:1577  return keccak256(abi.encodePacked(_keyHash, _vRFInputSeed)) */\n      swap1\n      pop\n        /* \"@chainlink/contracts/src/v0.8/VRFRequestIDBase.sol\":1416:1582  function makeRequestId(bytes32 _keyHash, uint256 _vRFInputSeed) internal pure returns (bytes32) {... */\n      swap3\n      swap2\n      pop\n      pop\n      jump\t// out\n        /* \"#utility.yul\":88:205   */\n    tag_45:\n        /* \"#utility.yul\":197:198   */\n      0x00\n        /* \"#utility.yul\":194:195   */\n      dup1\n        /* \"#utility.yul\":187:199   */\n      revert\n        /* \"#utility.yul\":334:411   */\n    tag_47:\n        /* \"#utility.yul\":371:378   */\n      0x00\n        /* \"#utility.yul\":400:405   */\n      dup2\n        /* \"#utility.yul\":389:405   */\n      swap1\n      pop\n        /* \"#utility.yul\":334:411   */\n      swap2\n      swap1\n      pop\n      jump\t// out\n        /* \"#utility.yul\":417:539   */\n    tag_48:\n        /* \"#utility.yul\":490:514   */\n      tag_80\n        /* \"#utility.yul\":508:513   */\n      dup2\n        /* \"#utility.yul\":490:514   */\n      tag_47\n      jump\t// in\n    tag_80:\n        /* \"#utility.yul\":483:488   */\n      dup2\n        /* \"#utility.yul\":480:515   */\n      eq\n        /* \"#utility.yul\":470:533   */\n      tag_81\n      jumpi\n        /* \"#utility.yul\":529:530   */\n      0x00\n        /* \"#utility.yul\":526:527   */\n      dup1\n        /* \"#utility.yul\":519:531   */\n      revert\n        /* \"#utility.yul\":470:533   */\n    tag_81:\n        /* \"#utility.yul\":417:539   */\n      pop\n      jump\t// out\n        /* \"#utility.yul\":545:684   */\n    tag_49:\n        /* \"#utility.yul\":591:596   */\n      0x00\n        /* \"#utility.yul\":629:635   */\n      dup2\n        /* \"#utility.yul\":616:636   */\n      calldataload\n        /* \"#utility.yul\":607:636   */\n      swap1\n      pop\n        /* \"#utility.yul\":645:678   */\n      tag_83\n        /* \"#utility.yul\":672:677   */\n      dup2\n        /* \"#utility.yul\":645:678   */\n      tag_48\n      jump\t// in\n    tag_83:\n        /* \"#utility.yul\":545:684   */\n      swap3\n      swap2\n      pop\n      pop\n      jump\t// out\n        /* \"#utility.yul\":690:767   */\n    tag_50:\n        /* \"#utility.yul\":727:734   */\n      0x00\n        /* \"#utility.yul\":756:761   */\n      dup2\n        /* \"#utility.yul\":745:761   */\n      swap1\n      pop\n        /* \"#utility.yul\":690:767   */\n      swap2\n      swap1\n      pop\n      jump\t// out\n        /* \"#utility.yul\":773:895   */\n    tag_51:\n        /* \"#utility.yul\":846:870   */\n      tag_86\n        /* \"#utility.yul\":864:869   */\n      dup2\n        /* \"#utility.yul\":846:870   */\n      tag_50\n      jump\t// in\n    tag_86:\n        /* \"#utility.yul\":839:844   */\n      dup2\n        /* \"#utility.yul\":836:871   */\n      eq\n        /* \"#utility.yul\":826:889   */\n      tag_87\n      jumpi\n        /* \"#utility.yul\":885:886   */\n      0x00\n        /* \"#utility.yul\":882:883   */\n      dup1\n        /* \"#utility.yul\":875:887   */\n      revert\n        /* \"#utility.yul\":826:889   */\n    tag_87:\n        /* \"#utility.yul\":773:895   */\n      pop\n      jump\t// out\n        /* \"#utility.yul\":901:1040   */\n    tag_52:\n        /* \"#utility.yul\":947:952   */\n      0x00\n        /* \"#utility.yul\":985:991   */\n      dup2\n        /* \"#utility.yul\":972:992   */\n      calldataload\n        /* \"#utility.yul\":963:992   */\n      swap1\n      pop\n        /* \"#utility.yul\":1001:1034   */\n      tag_89\n        /* \"#utility.yul\":1028:1033   */\n      dup2\n        /* \"#utility.yul\":1001:1034   */\n      tag_51\n      jump\t// in\n    tag_89:\n        /* \"#utility.yul\":901:1040   */\n      swap3\n      swap2\n      pop\n      pop\n      jump\t// out\n        /* \"#utility.yul\":1046:1520   */\n    tag_7:\n        /* \"#utility.yul\":1114:1120   */\n      0x00\n        /* \"#utility.yul\":1122:1128   */\n      dup1\n        /* \"#utility.yul\":1171:1173   */\n      0x40\n        /* \"#utility.yul\":1159:1168   */\n      dup4\n        /* \"#utility.yul\":1150:1157   */\n      dup6\n        /* \"#utility.yul\":1146:1169   */\n      sub\n        /* \"#utility.yul\":1142:1174   */\n      slt\n        /* \"#utility.yul\":1139:1258   */\n      iszero\n      tag_91\n      jumpi\n        /* \"#utility.yul\":1177:1256   */\n      tag_92\n      tag_45\n      jump\t// in\n    tag_92:\n        /* \"#utility.yul\":1139:1258   */\n    tag_91:\n        /* \"#utility.yul\":1297:1298   */\n      0x00\n        /* \"#utility.yul\":1322:1375   */\n      tag_93\n        /* \"#utility.yul\":1367:1374   */\n      dup6\n        /* \"#utility.yul\":1358:1364   */\n      dup3\n        /* \"#utility.yul\":1347:1356   */\n      dup7\n        /* \"#utility.yul\":1343:1365   */\n      add\n        /* \"#utility.yul\":1322:1375   */\n      tag_49\n      jump\t// in\n    tag_93:\n        /* \"#utility.yul\":1312:1375   */\n      swap3\n      pop\n        /* \"#utility.yul\":1268:1385   */\n      pop\n        /* \"#utility.yul\":1424:1426   */\n      0x20\n        /* \"#utility.yul\":1450:1503   */\n      tag_94\n        /* \"#utility.yul\":1495:1502   */\n      dup6\n        /* \"#utility.yul\":1486:1492   */\n      dup3\n        /* \"#utility.yul\":1475:1484   */\n      dup7\n        /* \"#utility.yul\":1471:1493   */\n      add\n        /* \"#utility.yul\":1450:1503   */\n      tag_52\n      jump\t// in\n    tag_94:\n        /* \"#utility.yul\":1440:1503   */\n      swap2\n      pop\n        /* \"#utility.yul\":1395:1513   */\n      pop\n        /* \"#utility.yul\":1046:1520   */\n      swap3\n      pop\n      swap3\n      swap1\n      pop\n      jump\t// out\n        /* \"#utility.yul\":1526:1644   */\n    tag_53:\n        /* \"#utility.yul\":1613:1637   */\n      tag_96\n        /* \"#utility.yul\":1631:1636   */\n      dup2\n        /* \"#utility.yul\":1613:1637   */\n      tag_47\n      jump\t// in\n    tag_96:\n        /* \"#utility.yul\":1608:1611   */\n      dup3\n        /* \"#utility.yul\":1601:1638   */\n      mstore\n        /* \"#utility.yul\":1526:1644   */\n      pop\n      pop\n      jump\t// out\n        /* \"#utility.yul\":1650:1872   */\n    tag_12:\n        /* \"#utility.yul\":1743:1747   */\n      0x00\n        /* \"#utility.yul\":1781:1783   */\n      0x20\n        /* \"#utility.yul\":1770:1779   */\n      dup3\n        /* \"#utility.yul\":1766:1784   */\n      add\n        /* \"#utility.yul\":1758:1784   */\n      swap1\n      pop\n        /* \"#utility.yul\":1794:1865   */\n      tag_98\n        /* \"#utility.yul\":1862:1863   */\n      0x00\n        /* \"#utility.yul\":1851:1860   */\n      dup4\n        /* \"#utility.yul\":1847:1864   */\n      add\n        /* \"#utility.yul\":1838:1844   */\n      dup5\n        /* \"#utility.yul\":1794:1865   */\n      tag_53\n      jump\t// in\n    tag_98:\n        /* \"#utility.yul\":1650:1872   */\n      swap3\n      swap2\n      pop\n      pop\n      jump\t// out\n        /* \"#utility.yul\":1878:2047   */\n    tag_54:\n        /* \"#utility.yul\":1962:1973   */\n      0x00\n        /* \"#utility.yul\":1996:2002   */\n      dup3\n        /* \"#utility.yul\":1991:1994   */\n      dup3\n        /* \"#utility.yul\":1984:2003   */\n      mstore\n        /* \"#utility.yul\":2036:2040   */\n      0x20\n        /* \"#utility.yul\":2031:2034   */\n      dup3\n        /* \"#utility.yul\":2027:2041   */\n      add\n        /* \"#utility.yul\":2012:2041   */\n      swap1\n      pop\n        /* \"#utility.yul\":1878:2047   */\n      swap3\n      swap2\n      pop\n      pop\n      jump\t// out\n        /* \"#utility.yul\":2053:2234   */\n    tag_55:\n        /* \"#utility.yul\":2193:2226   */\n      0x4f6e6c7920565246436f6f7264696e61746f722063616e2066756c66696c6c00\n        /* \"#utility.yul\":2189:2190   */\n      0x00\n        /* \"#utility.yul\":2181:2187   */\n      dup3\n        /* \"#utility.yul\":2177:2191   */\n      add\n        /* \"#utility.yul\":2170:2227   */\n      mstore\n        /* \"#utility.yul\":2053:2234   */\n      pop\n      jump\t// out\n        /* \"#utility.yul\":2240:2606   */\n    tag_56:\n        /* \"#utility.yul\":2382:2385   */\n      0x00\n        /* \"#utility.yul\":2403:2470   */\n      tag_102\n        /* \"#utility.yul\":2467:2469   */\n      0x1f\n        /* \"#utility.yul\":2462:2465   */\n      dup4\n        /* \"#utility.yul\":2403:2470   */\n      tag_54\n      jump\t// in\n    tag_102:\n        /* \"#utility.yul\":2396:2470   */\n      swap2\n      pop\n        /* \"#utility.yul\":2479:2572   */\n      tag_103\n        /* \"#utility.yul\":2568:2571   */\n      dup3\n        /* \"#utility.yul\":2479:2572   */\n      tag_55\n      jump\t// in\n    tag_103:\n        /* \"#utility.yul\":2597:2599   */\n      0x20\n        /* \"#utility.yul\":2592:2595   */\n      dup3\n        /* \"#utility.yul\":2588:2600   */\n      add\n        /* \"#utility.yul\":2581:2600   */\n      swap1\n      pop\n        /* \"#utility.yul\":2240:2606   */\n      swap2\n      swap1\n      pop\n      jump\t// out\n        /* \"#utility.yul\":2612:3031   */\n    tag_16:\n        /* \"#utility.yul\":2778:2782   */\n      0x00\n        /* \"#utility.yul\":2816:2818   */\n      0x20\n        /* \"#utility.yul\":2805:2814   */\n      dup3\n        /* \"#utility.yul\":2801:2819   */\n      add\n        /* \"#utility.yul\":2793:2819   */\n      swap1\n      pop\n        /* \"#utility.yul\":2865:2874   */\n      dup2\n        /* \"#utility.yul\":2859:2863   */\n      dup2\n        /* \"#utility.yul\":2855:2875   */\n      sub\n        /* \"#utility.yul\":2851:2852   */\n      0x00\n        /* \"#utility.yul\":2840:2849   */\n      dup4\n        /* \"#utility.yul\":2836:2853   */\n      add\n        /* \"#utility.yul\":2829:2876   */\n      mstore\n        /* \"#utility.yul\":2893:3024   */\n      tag_105\n        /* \"#utility.yul\":3019:3023   */\n      dup2\n        /* \"#utility.yul\":2893:3024   */\n      tag_56\n      jump\t// in\n    tag_105:\n        /* \"#utility.yul\":2885:3024   */\n      swap1\n      pop\n        /* \"#utility.yul\":2612:3031   */\n      swap2\n      swap1\n      pop\n      jump\t// out\n        /* \"#utility.yul\":3037:3155   */\n    tag_57:\n        /* \"#utility.yul\":3124:3148   */\n      tag_107\n        /* \"#utility.yul\":3142:3147   */\n      dup2\n        /* \"#utility.yul\":3124:3148   */\n      tag_50\n      jump\t// in\n    tag_107:\n        /* \"#utility.yul\":3119:3122   */\n      dup3\n        /* \"#utility.yul\":3112:3149   */\n      mstore\n        /* \"#utility.yul\":3037:3155   */\n      pop\n      pop\n      jump\t// out\n        /* \"#utility.yul\":3161:3493   */\n    tag_25:\n        /* \"#utility.yul\":3282:3286   */\n      0x00\n        /* \"#utility.yul\":3320:3322   */\n      0x40\n        /* \"#utility.yul\":3309:3318   */\n      dup3\n        /* \"#utility.yul\":3305:3323   */\n      add\n        /* \"#utility.yul\":3297:3323   */\n      swap1\n      pop\n        /* \"#utility.yul\":3333:3404   */\n      tag_109\n        /* \"#utility.yul\":3401:3402   */\n      0x00\n        /* \"#utility.yul\":3390:3399   */\n      dup4\n        /* \"#utility.yul\":3386:3403   */\n      add\n        /* \"#utility.yul\":3377:3383   */\n      dup6\n        /* \"#utility.yul\":3333:3404   */\n      tag_53\n      jump\t// in\n    tag_109:\n        /* \"#utility.yul\":3414:3486   */\n      tag_110\n        /* \"#utility.yul\":3482:3484   */\n      0x20\n        /* \"#utility.yul\":3471:3480   */\n      dup4\n        /* \"#utility.yul\":3467:3485   */\n      add\n        /* \"#utility.yul\":3458:3464   */\n      dup5\n        /* \"#utility.yul\":3414:3486   */\n      tag_57\n      jump\t// in\n    tag_110:\n        /* \"#utility.yul\":3161:3493   */\n      swap4\n      swap3\n      pop\n      pop\n      pop\n      jump\t// out\n        /* \"#utility.yul\":3499:3625   */\n    tag_58:\n        /* \"#utility.yul\":3536:3543   */\n      0x00\n        /* \"#utility.yul\":3576:3618   */\n      0xffffffffffffffffffffffffffffffffffffffff\n        /* \"#utility.yul\":3569:3574   */\n      dup3\n        /* \"#utility.yul\":3565:3619   */\n      and\n        /* \"#utility.yul\":3554:3619   */\n      swap1\n      pop\n        /* \"#utility.yul\":3499:3625   */\n      swap2\n      swap1\n      pop\n      jump\t// out\n        /* \"#utility.yul\":3631:3727   */\n    tag_59:\n        /* \"#utility.yul\":3668:3675   */\n      0x00\n        /* \"#utility.yul\":3697:3721   */\n      tag_113\n        /* \"#utility.yul\":3715:3720   */\n      dup3\n        /* \"#utility.yul\":3697:3721   */\n      tag_58\n      jump\t// in\n    tag_113:\n        /* \"#utility.yul\":3686:3721   */\n      swap1\n      pop\n        /* \"#utility.yul\":3631:3727   */\n      swap2\n      swap1\n      pop\n      jump\t// out\n        /* \"#utility.yul\":3733:3851   */\n    tag_60:\n        /* \"#utility.yul\":3820:3844   */\n      tag_115\n        /* \"#utility.yul\":3838:3843   */\n      dup2\n        /* \"#utility.yul\":3820:3844   */\n      tag_59\n      jump\t// in\n    tag_115:\n        /* \"#utility.yul\":3815:3818   */\n      dup3\n        /* \"#utility.yul\":3808:3845   */\n      mstore\n        /* \"#utility.yul\":3733:3851   */\n      pop\n      pop\n      jump\t// out\n        /* \"#utility.yul\":3857:3955   */\n    tag_61:\n        /* \"#utility.yul\":3908:3914   */\n      0x00\n        /* \"#utility.yul\":3942:3947   */\n      dup2\n        /* \"#utility.yul\":3936:3948   */\n      mload\n        /* \"#utility.yul\":3926:3948   */\n      swap1\n      pop\n        /* \"#utility.yul\":3857:3955   */\n      swap2\n      swap1\n      pop\n      jump\t// out\n        /* \"#utility.yul\":3961:4129   */\n    tag_62:\n        /* \"#utility.yul\":4044:4055   */\n      0x00\n        /* \"#utility.yul\":4078:4084   */\n      dup3\n        /* \"#utility.yul\":4073:4076   */\n      dup3\n        /* \"#utility.yul\":4066:4085   */\n      mstore\n        /* \"#utility.yul\":4118:4122   */\n      0x20\n        /* \"#utility.yul\":4113:4116   */\n      dup3\n        /* \"#utility.yul\":4109:4123   */\n      add\n        /* \"#utility.yul\":4094:4123   */\n      swap1\n      pop\n        /* \"#utility.yul\":3961:4129   */\n      swap3\n      swap2\n      pop\n      pop\n      jump\t// out\n        /* \"#utility.yul\":4135:4381   */\n    tag_63:\n        /* \"#utility.yul\":4216:4217   */\n      0x00\n        /* \"#utility.yul\":4226:4339   */\n    tag_119:\n        /* \"#utility.yul\":4240:4246   */\n      dup4\n        /* \"#utility.yul\":4237:4238   */\n      dup2\n        /* \"#utility.yul\":4234:4247   */\n      lt\n        /* \"#utility.yul\":4226:4339   */\n      iszero\n      tag_121\n      jumpi\n        /* \"#utility.yul\":4325:4326   */\n      dup1\n        /* \"#utility.yul\":4320:4323   */\n      dup3\n        /* \"#utility.yul\":4316:4327   */\n      add\n        /* \"#utility.yul\":4310:4328   */\n      mload\n        /* \"#utility.yul\":4306:4307   */\n      dup2\n        /* \"#utility.yul\":4301:4304   */\n      dup5\n        /* \"#utility.yul\":4297:4308   */\n      add\n        /* \"#utility.yul\":4290:4329   */\n      mstore\n        /* \"#utility.yul\":4262:4264   */\n      0x20\n        /* \"#utility.yul\":4259:4260   */\n      dup2\n        /* \"#utility.yul\":4255:4265   */\n      add\n        /* \"#utility.yul\":4250:4265   */\n      swap1\n      pop\n        /* \"#utility.yul\":4226:4339   */\n      jump(tag_119)\n    tag_121:\n        /* \"#utility.yul\":4373:4374   */\n      0x00\n        /* \"#utility.yul\":4364:4370   */\n      dup5\n        /* \"#utility.yul\":4359:4362   */\n      dup5\n        /* \"#utility.yul\":4355:4371   */\n      add\n        /* \"#utility.yul\":4348:4375   */\n      mstore\n        /* \"#utility.yul\":4197:4381   */\n      pop\n        /* \"#utility.yul\":4135:4381   */\n      pop\n      pop\n      pop\n      jump\t// out\n        /* \"#utility.yul\":4387:4489   */\n    tag_64:\n        /* \"#utility.yul\":4428:4434   */\n      0x00\n        /* \"#utility.yul\":4479:4481   */\n      0x1f\n        /* \"#utility.yul\":4475:4482   */\n      not\n        /* \"#utility.yul\":4470:4472   */\n      0x1f\n        /* \"#utility.yul\":4463:4468   */\n      dup4\n        /* \"#utility.yul\":4459:4473   */\n      add\n        /* \"#utility.yul\":4455:4483   */\n      and\n        /* \"#utility.yul\":4445:4483   */\n      swap1\n      pop\n        /* \"#utility.yul\":4387:4489   */\n      swap2\n      swap1\n      pop\n      jump\t// out\n        /* \"#utility.yul\":4495:4868   */\n    tag_65:\n        /* \"#utility.yul\":4581:4584   */\n      0x00\n        /* \"#utility.yul\":4609:4647   */\n      tag_124\n        /* \"#utility.yul\":4641:4646   */\n      dup3\n        /* \"#utility.yul\":4609:4647   */\n      tag_61\n      jump\t// in\n    tag_124:\n        /* \"#utility.yul\":4663:4733   */\n      tag_125\n        /* \"#utility.yul\":4726:4732   */\n      dup2\n        /* \"#utility.yul\":4721:4724   */\n      dup6\n        /* \"#utility.yul\":4663:4733   */\n      tag_62\n      jump\t// in\n    tag_125:\n        /* \"#utility.yul\":4656:4733   */\n      swap4\n      pop\n        /* \"#utility.yul\":4742:4807   */\n      tag_126\n        /* \"#utility.yul\":4800:4806   */\n      dup2\n        /* \"#utility.yul\":4795:4798   */\n      dup6\n        /* \"#utility.yul\":4788:4792   */\n      0x20\n        /* \"#utility.yul\":4781:4786   */\n      dup7\n        /* \"#utility.yul\":4777:4793   */\n      add\n        /* \"#utility.yul\":4742:4807   */\n      tag_63\n      jump\t// in\n    tag_126:\n        /* \"#utility.yul\":4832:4861   */\n      tag_127\n        /* \"#utility.yul\":4854:4860   */\n      dup2\n        /* \"#utility.yul\":4832:4861   */\n      tag_64\n      jump\t// in\n    tag_127:\n        /* \"#utility.yul\":4827:4830   */\n      dup5\n        /* \"#utility.yul\":4823:4862   */\n      add\n        /* \"#utility.yul\":4816:4862   */\n      swap2\n      pop\n        /* \"#utility.yul\":4585:4868   */\n      pop\n        /* \"#utility.yul\":4495:4868   */\n      swap3\n      swap2\n      pop\n      pop\n      jump\t// out\n        /* \"#utility.yul\":4874:5403   */\n    tag_27:\n        /* \"#utility.yul\":5041:5045   */\n      0x00\n        /* \"#utility.yul\":5079:5081   */\n      0x60\n        /* \"#utility.yul\":5068:5077   */\n      dup3\n        /* \"#utility.yul\":5064:5082   */\n      add\n        /* \"#utility.yul\":5056:5082   */\n      swap1\n      pop\n        /* \"#utility.yul\":5092:5163   */\n      tag_129\n        /* \"#utility.yul\":5160:5161   */\n      0x00\n        /* \"#utility.yul\":5149:5158   */\n      dup4\n        /* \"#utility.yul\":5145:5162   */\n      add\n        /* \"#utility.yul\":5136:5142   */\n      dup7\n        /* \"#utility.yul\":5092:5163   */\n      tag_60\n      jump\t// in\n    tag_129:\n        /* \"#utility.yul\":5173:5245   */\n      tag_130\n        /* \"#utility.yul\":5241:5243   */\n      0x20\n        /* \"#utility.yul\":5230:5239   */\n      dup4\n        /* \"#utility.yul\":5226:5244   */\n      add\n        /* \"#utility.yul\":5217:5223   */\n      dup6\n        /* \"#utility.yul\":5173:5245   */\n      tag_57\n      jump\t// in\n    tag_130:\n        /* \"#utility.yul\":5292:5301   */\n      dup2\n        /* \"#utility.yul\":5286:5290   */\n      dup2\n        /* \"#utility.yul\":5282:5302   */\n      sub\n        /* \"#utility.yul\":5277:5279   */\n      0x40\n        /* \"#utility.yul\":5266:5275   */\n      dup4\n        /* \"#utility.yul\":5262:5280   */\n      add\n        /* \"#utility.yul\":5255:5303   */\n      mstore\n        /* \"#utility.yul\":5320:5396   */\n      tag_131\n        /* \"#utility.yul\":5391:5395   */\n      dup2\n        /* \"#utility.yul\":5382:5388   */\n      dup5\n        /* \"#utility.yul\":5320:5396   */\n      tag_65\n      jump\t// in\n    tag_131:\n        /* \"#utility.yul\":5312:5396   */\n      swap1\n      pop\n        /* \"#utility.yul\":4874:5403   */\n      swap5\n      swap4\n      pop\n      pop\n      pop\n      pop\n      jump\t// out\n        /* \"#utility.yul\":5409:5499   */\n    tag_66:\n        /* \"#utility.yul\":5443:5450   */\n      0x00\n        /* \"#utility.yul\":5486:5491   */\n      dup2\n        /* \"#utility.yul\":5479:5492   */\n      iszero\n        /* \"#utility.yul\":5472:5493   */\n      iszero\n        /* \"#utility.yul\":5461:5493   */\n      swap1\n      pop\n        /* \"#utility.yul\":5409:5499   */\n      swap2\n      swap1\n      pop\n      jump\t// out\n        /* \"#utility.yul\":5505:5621   */\n    tag_67:\n        /* \"#utility.yul\":5575:5596   */\n      tag_134\n        /* \"#utility.yul\":5590:5595   */\n      dup2\n        /* \"#utility.yul\":5575:5596   */\n      tag_66\n      jump\t// in\n    tag_134:\n        /* \"#utility.yul\":5568:5573   */\n      dup2\n        /* \"#utility.yul\":5565:5597   */\n      eq\n        /* \"#utility.yul\":5555:5615   */\n      tag_135\n      jumpi\n        /* \"#utility.yul\":5611:5612   */\n      0x00\n        /* \"#utility.yul\":5608:5609   */\n      dup1\n        /* \"#utility.yul\":5601:5613   */\n      revert\n        /* \"#utility.yul\":5555:5615   */\n    tag_135:\n        /* \"#utility.yul\":5505:5621   */\n      pop\n      jump\t// out\n        /* \"#utility.yul\":5627:5764   */\n    tag_68:\n        /* \"#utility.yul\":5681:5686   */\n      0x00\n        /* \"#utility.yul\":5712:5718   */\n      dup2\n        /* \"#utility.yul\":5706:5719   */\n      mload\n        /* \"#utility.yul\":5697:5719   */\n      swap1\n      pop\n        /* \"#utility.yul\":5728:5758   */\n      tag_137\n        /* \"#utility.yul\":5752:5757   */\n      dup2\n        /* \"#utility.yul\":5728:5758   */\n      tag_67\n      jump\t// in\n    tag_137:\n        /* \"#utility.yul\":5627:5764   */\n      swap3\n      swap2\n      pop\n      pop\n      jump\t// out\n        /* \"#utility.yul\":5770:6115   */\n    tag_31:\n        /* \"#utility.yul\":5837:5843   */\n      0x00\n        /* \"#utility.yul\":5886:5888   */\n      0x20\n        /* \"#utility.yul\":5874:5883   */\n      dup3\n        /* \"#utility.yul\":5865:5872   */\n      dup5\n        /* \"#utility.yul\":5861:5884   */\n      sub\n        /* \"#utility.yul\":5857:5889   */\n      slt\n        /* \"#utility.yul\":5854:5973   */\n      iszero\n      tag_139\n      jumpi\n        /* \"#utility.yul\":5892:5971   */\n      tag_140\n      tag_45\n      jump\t// in\n    tag_140:\n        /* \"#utility.yul\":5854:5973   */\n    tag_139:\n        /* \"#utility.yul\":6012:6013   */\n      0x00\n        /* \"#utility.yul\":6037:6098   */\n      tag_141\n        /* \"#utility.yul\":6090:6097   */\n      dup5\n        /* \"#utility.yul\":6081:6087   */\n      dup3\n        /* \"#utility.yul\":6070:6079   */\n      dup6\n        /* \"#utility.yul\":6066:6088   */\n      add\n        /* \"#utility.yul\":6037:6098   */\n      tag_68\n      jump\t// in\n    tag_141:\n        /* \"#utility.yul\":6027:6098   */\n      swap2\n      pop\n        /* \"#utility.yul\":5983:6108   */\n      pop\n        /* \"#utility.yul\":5770:6115   */\n      swap3\n      swap2\n      pop\n      pop\n      jump\t// out\n        /* \"#utility.yul\":6121:6301   */\n    tag_69:\n        /* \"#utility.yul\":6169:6246   */\n      0x4e487b7100000000000000000000000000000000000000000000000000000000\n        /* \"#utility.yul\":6166:6167   */\n      0x00\n        /* \"#utility.yul\":6159:6247   */\n      mstore\n        /* \"#utility.yul\":6266:6270   */\n      0x11\n        /* \"#utility.yul\":6263:6264   */\n      0x04\n        /* \"#utility.yul\":6256:6271   */\n      mstore\n        /* \"#utility.yul\":6290:6294   */\n      0x24\n        /* \"#utility.yul\":6287:6288   */\n      0x00\n        /* \"#utility.yul\":6280:6295   */\n      revert\n        /* \"#utility.yul\":6307:6498   */\n    tag_35:\n        /* \"#utility.yul\":6347:6350   */\n      0x00\n        /* \"#utility.yul\":6366:6386   */\n      tag_144\n        /* \"#utility.yul\":6384:6385   */\n      dup3\n        /* \"#utility.yul\":6366:6386   */\n      tag_50\n      jump\t// in\n    tag_144:\n        /* \"#utility.yul\":6361:6386   */\n      swap2\n      pop\n        /* \"#utility.yul\":6400:6420   */\n      tag_145\n        /* \"#utility.yul\":6418:6419   */\n      dup4\n        /* \"#utility.yul\":6400:6420   */\n      tag_50\n      jump\t// in\n    tag_145:\n        /* \"#utility.yul\":6395:6420   */\n      swap3\n      pop\n        /* \"#utility.yul\":6443:6444   */\n      dup3\n        /* \"#utility.yul\":6440:6441   */\n      dup3\n        /* \"#utility.yul\":6436:6445   */\n      add\n        /* \"#utility.yul\":6429:6445   */\n      swap1\n      pop\n        /* \"#utility.yul\":6464:6467   */\n      dup1\n        /* \"#utility.yul\":6461:6462   */\n      dup3\n        /* \"#utility.yul\":6458:6468   */\n      gt\n        /* \"#utility.yul\":6455:6491   */\n      iszero\n      tag_146\n      jumpi\n        /* \"#utility.yul\":6471:6489   */\n      tag_147\n      tag_69\n      jump\t// in\n    tag_147:\n        /* \"#utility.yul\":6455:6491   */\n    tag_146:\n        /* \"#utility.yul\":6307:6498   */\n      swap3\n      swap2\n      pop\n      pop\n      jump\t// out\n        /* \"#utility.yul\":6504:7057   */\n    tag_40:\n        /* \"#utility.yul\":6681:6685   */\n      0x00\n        /* \"#utility.yul\":6719:6722   */\n      0x80\n        /* \"#utility.yul\":6708:6717   */\n      dup3\n        /* \"#utility.yul\":6704:6723   */\n      add\n        /* \"#utility.yul\":6696:6723   */\n      swap1\n      pop\n        /* \"#utility.yul\":6733:6804   */\n      tag_149\n        /* \"#utility.yul\":6801:6802   */\n      0x00\n        /* \"#utility.yul\":6790:6799   */\n      dup4\n        /* \"#utility.yul\":6786:6803   */\n      add\n        /* \"#utility.yul\":6777:6783   */\n      dup8\n        /* \"#utility.yul\":6733:6804   */\n      tag_53\n      jump\t// in\n    tag_149:\n        /* \"#utility.yul\":6814:6886   */\n      tag_150\n        /* \"#utility.yul\":6882:6884   */\n      0x20\n        /* \"#utility.yul\":6871:6880   */\n      dup4\n        /* \"#utility.yul\":6867:6885   */\n      add\n        /* \"#utility.yul\":6858:6864   */\n      dup7\n        /* \"#utility.yul\":6814:6886   */\n      tag_57\n      jump\t// in\n    tag_150:\n        /* \"#utility.yul\":6896:6968   */\n      tag_151\n        /* \"#utility.yul\":6964:6966   */\n      0x40\n        /* \"#utility.yul\":6953:6962   */\n      dup4\n        /* \"#utility.yul\":6949:6967   */\n      add\n        /* \"#utility.yul\":6940:6946   */\n      dup6\n        /* \"#utility.yul\":6896:6968   */\n      tag_60\n      jump\t// in\n    tag_151:\n        /* \"#utility.yul\":6978:7050   */\n      tag_152\n        /* \"#utility.yul\":7046:7048   */\n      0x60\n        /* \"#utility.yul\":7035:7044   */\n      dup4\n        /* \"#utility.yul\":7031:7049   */\n      add\n        /* \"#utility.yul\":7022:7028   */\n      dup5\n        /* \"#utility.yul\":6978:7050   */\n      tag_57\n      jump\t// in\n    tag_152:\n        /* \"#utility.yul\":6504:7057   */\n      swap6\n      swap5\n      pop\n      pop\n      pop\n      pop\n      pop\n      jump\t// out\n        /* \"#utility.yul\":7063:7142   */\n    tag_70:\n        /* \"#utility.yul\":7102:7109   */\n      0x00\n        /* \"#utility.yul\":7131:7136   */\n      dup2\n        /* \"#utility.yul\":7120:7136   */\n      swap1\n      pop\n        /* \"#utility.yul\":7063:7142   */\n      swap2\n      swap1\n      pop\n      jump\t// out\n        /* \"#utility.yul\":7148:7305   */\n    tag_71:\n        /* \"#utility.yul\":7253:7298   */\n      tag_155\n        /* \"#utility.yul\":7273:7297   */\n      tag_156\n        /* \"#utility.yul\":7291:7296   */\n      dup3\n        /* \"#utility.yul\":7273:7297   */\n      tag_47\n      jump\t// in\n    tag_156:\n        /* \"#utility.yul\":7253:7298   */\n      tag_70\n      jump\t// in\n    tag_155:\n        /* \"#utility.yul\":7248:7251   */\n      dup3\n        /* \"#utility.yul\":7241:7299   */\n      mstore\n        /* \"#utility.yul\":7148:7305   */\n      pop\n      pop\n      jump\t// out\n        /* \"#utility.yul\":7311:7390   */\n    tag_72:\n        /* \"#utility.yul\":7350:7357   */\n      0x00\n        /* \"#utility.yul\":7379:7384   */\n      dup2\n        /* \"#utility.yul\":7368:7384   */\n      swap1\n      pop\n        /* \"#utility.yul\":7311:7390   */\n      swap2\n      swap1\n      pop\n      jump\t// out\n        /* \"#utility.yul\":7396:7553   */\n    tag_73:\n        /* \"#utility.yul\":7501:7546   */\n      tag_159\n        /* \"#utility.yul\":7521:7545   */\n      tag_160\n        /* \"#utility.yul\":7539:7544   */\n      dup3\n        /* \"#utility.yul\":7521:7545   */\n      tag_50\n      jump\t// in\n    tag_160:\n        /* \"#utility.yul\":7501:7546   */\n      tag_72\n      jump\t// in\n    tag_159:\n        /* \"#utility.yul\":7496:7499   */\n      dup3\n        /* \"#utility.yul\":7489:7547   */\n      mstore\n        /* \"#utility.yul\":7396:7553   */\n      pop\n      pop\n      jump\t// out\n        /* \"#utility.yul\":7559:7956   */\n    tag_43:\n        /* \"#utility.yul\":7699:7702   */\n      0x00\n        /* \"#utility.yul\":7714:7789   */\n      tag_162\n        /* \"#utility.yul\":7785:7788   */\n      dup3\n        /* \"#utility.yul\":7776:7782   */\n      dup6\n        /* \"#utility.yul\":7714:7789   */\n      tag_71\n      jump\t// in\n    tag_162:\n        /* \"#utility.yul\":7814:7816   */\n      0x20\n        /* \"#utility.yul\":7809:7812   */\n      dup3\n        /* \"#utility.yul\":7805:7817   */\n      add\n        /* \"#utility.yul\":7798:7817   */\n      swap2\n      pop\n        /* \"#utility.yul\":7827:7902   */\n      tag_163\n        /* \"#utility.yul\":7898:7901   */\n      dup3\n        /* \"#utility.yul\":7889:7895   */\n      dup5\n        /* \"#utility.yul\":7827:7902   */\n      tag_73\n      jump\t// in\n    tag_163:\n        /* \"#utility.yul\":7927:7929   */\n      0x20\n        /* \"#utility.yul\":7922:7925   */\n      dup3\n        /* \"#utility.yul\":7918:7930   */\n      add\n        /* \"#utility.yul\":7911:7930   */\n      swap2\n      pop\n        /* \"#utility.yul\":7947:7950   */\n      dup2\n        /* \"#utility.yul\":7940:7950   */\n      swap1\n      pop\n        /* \"#utility.yul\":7559:7956   */\n      swap4\n      swap3\n      pop\n      pop\n      pop\n      jump\t// out\n\n    auxdata: 0xa2646970667358221220a8dae9f59f8ac04692d6f2c139d7efec3917bab57f10e8e9bad5c1da370387db64736f6c63430008110033\n}\n",
				"bytecode": {
					"linkReferences": {},
					"object": "60c060405234801561001057600080fd5b5073dd3782915140c8f3b190b5d67eac6dc5760c46e973a36085f69e2889c224210f603d836748e7dc00888173ffffffffffffffffffffffffffffffffffffffff1660a08173ffffffffffffffffffffffffffffffffffffffff16815250508073ffffffffffffffffffffffffffffffffffffffff1660808173ffffffffffffffffffffffffffffffffffffffff168152505050507f6c3699283bda56ad74f6b855546325b68d482e983852a7a82979cc4807b641f460001b60018190555067016345785d8a000060028190555060805160a05161074061010960003960008181607701526101710152600061013501526107406000f3fe608060405234801561001057600080fd5b50600436106100365760003560e01c806394985ddd1461003b578063dbdff2c114610057575b600080fd5b61005560048036038101906100509190610361565b610075565b005b61005f610111565b60405161006c91906103b0565b60405180910390f35b7f000000000000000000000000000000000000000000000000000000000000000073ffffffffffffffffffffffffffffffffffffffff163373ffffffffffffffffffffffffffffffffffffffff1614610103576040517f08c379a00000000000000000000000000000000000000000000000000000000081526004016100fa90610428565b60405180910390fd5b61010d8282610126565b5050565b6000610121600154600254610131565b905090565b806003819055505050565b60007f000000000000000000000000000000000000000000000000000000000000000073ffffffffffffffffffffffffffffffffffffffff16634000aea07f0000000000000000000000000000000000000000000000000000000000000000848660006040516020016101a5929190610457565b6040516020818303038152906040526040518463ffffffff1660e01b81526004016101d293929190610551565b6020604051808303816000875af11580156101f1573d6000803e3d6000fd5b505050506040513d601f19601f8201168201806040525081019061021591906105c7565b5060006102378460003060008089815260200190815260200160002054610281565b90506001600080868152602001908152602001600020546102589190610623565b6000808681526020019081526020016000208190555061027884826102bd565b91505092915050565b60008484848460405160200161029a9493929190610657565b6040516020818303038152906040528051906020012060001c9050949350505050565b600082826040516020016102d29291906106de565b60405160208183030381529060405280519060200120905092915050565b600080fd5b6000819050919050565b610308816102f5565b811461031357600080fd5b50565b600081359050610325816102ff565b92915050565b6000819050919050565b61033e8161032b565b811461034957600080fd5b50565b60008135905061035b81610335565b92915050565b60008060408385031215610378576103776102f0565b5b600061038685828601610316565b92505060206103978582860161034c565b9150509250929050565b6103aa816102f5565b82525050565b60006020820190506103c560008301846103a1565b92915050565b600082825260208201905092915050565b7f4f6e6c7920565246436f6f7264696e61746f722063616e2066756c66696c6c00600082015250565b6000610412601f836103cb565b915061041d826103dc565b602082019050919050565b6000602082019050818103600083015261044181610405565b9050919050565b6104518161032b565b82525050565b600060408201905061046c60008301856103a1565b6104796020830184610448565b9392505050565b600073ffffffffffffffffffffffffffffffffffffffff82169050919050565b60006104ab82610480565b9050919050565b6104bb816104a0565b82525050565b600081519050919050565b600082825260208201905092915050565b60005b838110156104fb5780820151818401526020810190506104e0565b60008484015250505050565b6000601f19601f8301169050919050565b6000610523826104c1565b61052d81856104cc565b935061053d8185602086016104dd565b61054681610507565b840191505092915050565b600060608201905061056660008301866104b2565b6105736020830185610448565b81810360408301526105858184610518565b9050949350505050565b60008115159050919050565b6105a48161058f565b81146105af57600080fd5b50565b6000815190506105c18161059b565b92915050565b6000602082840312156105dd576105dc6102f0565b5b60006105eb848285016105b2565b91505092915050565b7f4e487b7100000000000000000000000000000000000000000000000000000000600052601160045260246000fd5b600061062e8261032b565b91506106398361032b565b9250828201905080821115610651576106506105f4565b5b92915050565b600060808201905061066c60008301876103a1565b6106796020830186610448565b61068660408301856104b2565b6106936060830184610448565b95945050505050565b6000819050919050565b6106b76106b2826102f5565b61069c565b82525050565b6000819050919050565b6106d86106d38261032b565b6106bd565b82525050565b60006106ea82856106a6565b6020820191506106fa82846106c7565b602082019150819050939250505056fea2646970667358221220a8dae9f59f8ac04692d6f2c139d7efec3917bab57f10e8e9bad5c1da370387db64736f6c63430008110033",
					"opcodes": "PUSH1 0xC0 PUSH1 0x40 MSTORE CALLVALUE DUP1 ISZERO PUSH2 0x10 JUMPI PUSH1 0x0 DUP1 REVERT JUMPDEST POP PUSH20 0xDD3782915140C8F3B190B5D67EAC6DC5760C46E9 PUSH20 0xA36085F69E2889C224210F603D836748E7DC0088 DUP2 PUSH20 0xFFFFFFFFFFFFFFFFFFFFFFFFFFFFFFFFFFFFFFFF AND PUSH1 0xA0 DUP2 PUSH20 0xFFFFFFFFFFFFFFFFFFFFFFFFFFFFFFFFFFFFFFFF AND DUP2 MSTORE POP POP DUP1 PUSH20 0xFFFFFFFFFFFFFFFFFFFFFFFFFFFFFFFFFFFFFFFF AND PUSH1 0x80 DUP2 PUSH20 0xFFFFFFFFFFFFFFFFFFFFFFFFFFFFFFFFFFFFFFFF AND DUP2 MSTORE POP POP POP POP PUSH32 0x6C3699283BDA56AD74F6B855546325B68D482E983852A7A82979CC4807B641F4 PUSH1 0x0 SHL PUSH1 0x1 DUP2 SWAP1 SSTORE POP PUSH8 0x16345785D8A0000 PUSH1 0x2 DUP2 SWAP1 SSTORE POP PUSH1 0x80 MLOAD PUSH1 0xA0 MLOAD PUSH2 0x740 PUSH2 0x109 PUSH1 0x0 CODECOPY PUSH1 0x0 DUP2 DUP2 PUSH1 0x77 ADD MSTORE PUSH2 0x171 ADD MSTORE PUSH1 0x0 PUSH2 0x135 ADD MSTORE PUSH2 0x740 PUSH1 0x0 RETURN INVALID PUSH1 0x80 PUSH1 0x40 MSTORE CALLVALUE DUP1 ISZERO PUSH2 0x10 JUMPI PUSH1 0x0 DUP1 REVERT JUMPDEST POP PUSH1 0x4 CALLDATASIZE LT PUSH2 0x36 JUMPI PUSH1 0x0 CALLDATALOAD PUSH1 0xE0 SHR DUP1 PUSH4 0x94985DDD EQ PUSH2 0x3B JUMPI DUP1 PUSH4 0xDBDFF2C1 EQ PUSH2 0x57 JUMPI JUMPDEST PUSH1 0x0 DUP1 REVERT JUMPDEST PUSH2 0x55 PUSH1 0x4 DUP1 CALLDATASIZE SUB DUP2 ADD SWAP1 PUSH2 0x50 SWAP2 SWAP1 PUSH2 0x361 JUMP JUMPDEST PUSH2 0x75 JUMP JUMPDEST STOP JUMPDEST PUSH2 0x5F PUSH2 0x111 JUMP JUMPDEST PUSH1 0x40 MLOAD PUSH2 0x6C SWAP2 SWAP1 PUSH2 0x3B0 JUMP JUMPDEST PUSH1 0x40 MLOAD DUP1 SWAP2 SUB SWAP1 RETURN JUMPDEST PUSH32 0x0 PUSH20 0xFFFFFFFFFFFFFFFFFFFFFFFFFFFFFFFFFFFFFFFF AND CALLER PUSH20 0xFFFFFFFFFFFFFFFFFFFFFFFFFFFFFFFFFFFFFFFF AND EQ PUSH2 0x103 JUMPI PUSH1 0x40 MLOAD PUSH32 0x8C379A000000000000000000000000000000000000000000000000000000000 DUP2 MSTORE PUSH1 0x4 ADD PUSH2 0xFA SWAP1 PUSH2 0x428 JUMP JUMPDEST PUSH1 0x40 MLOAD DUP1 SWAP2 SUB SWAP1 REVERT JUMPDEST PUSH2 0x10D DUP3 DUP3 PUSH2 0x126 JUMP JUMPDEST POP POP JUMP JUMPDEST PUSH1 0x0 PUSH2 0x121 PUSH1 0x1 SLOAD PUSH1 0x2 SLOAD PUSH2 0x131 JUMP JUMPDEST SWAP1 POP SWAP1 JUMP JUMPDEST DUP1 PUSH1 0x3 DUP2 SWAP1 SSTORE POP POP POP JUMP JUMPDEST PUSH1 0x0 PUSH32 0x0 PUSH20 0xFFFFFFFFFFFFFFFFFFFFFFFFFFFFFFFFFFFFFFFF AND PUSH4 0x4000AEA0 PUSH32 0x0 DUP5 DUP7 PUSH1 0x0 PUSH1 0x40 MLOAD PUSH1 0x20 ADD PUSH2 0x1A5 SWAP3 SWAP2 SWAP1 PUSH2 0x457 JUMP JUMPDEST PUSH1 0x40 MLOAD PUSH1 0x20 DUP2 DUP4 SUB SUB DUP2 MSTORE SWAP1 PUSH1 0x40 MSTORE PUSH1 0x40 MLOAD DUP5 PUSH4 0xFFFFFFFF AND PUSH1 0xE0 SHL DUP2 MSTORE PUSH1 0x4 ADD PUSH2 0x1D2 SWAP4 SWAP3 SWAP2 SWAP1 PUSH2 0x551 JUMP JUMPDEST PUSH1 0x20 PUSH1 0x40 MLOAD DUP1 DUP4 SUB DUP2 PUSH1 0x0 DUP8 GAS CALL ISZERO DUP1 ISZERO PUSH2 0x1F1 JUMPI RETURNDATASIZE PUSH1 0x0 DUP1 RETURNDATACOPY RETURNDATASIZE PUSH1 0x0 REVERT JUMPDEST POP POP POP POP PUSH1 0x40 MLOAD RETURNDATASIZE PUSH1 0x1F NOT PUSH1 0x1F DUP3 ADD AND DUP3 ADD DUP1 PUSH1 0x40 MSTORE POP DUP2 ADD SWAP1 PUSH2 0x215 SWAP2 SWAP1 PUSH2 0x5C7 JUMP JUMPDEST POP PUSH1 0x0 PUSH2 0x237 DUP5 PUSH1 0x0 ADDRESS PUSH1 0x0 DUP1 DUP10 DUP2 MSTORE PUSH1 0x20 ADD SWAP1 DUP2 MSTORE PUSH1 0x20 ADD PUSH1 0x0 KECCAK256 SLOAD PUSH2 0x281 JUMP JUMPDEST SWAP1 POP PUSH1 0x1 PUSH1 0x0 DUP1 DUP7 DUP2 MSTORE PUSH1 0x20 ADD SWAP1 DUP2 MSTORE PUSH1 0x20 ADD PUSH1 0x0 KECCAK256 SLOAD PUSH2 0x258 SWAP2 SWAP1 PUSH2 0x623 JUMP JUMPDEST PUSH1 0x0 DUP1 DUP7 DUP2 MSTORE PUSH1 0x20 ADD SWAP1 DUP2 MSTORE PUSH1 0x20 ADD PUSH1 0x0 KECCAK256 DUP2 SWAP1 SSTORE POP PUSH2 0x278 DUP5 DUP3 PUSH2 0x2BD JUMP JUMPDEST SWAP2 POP POP SWAP3 SWAP2 POP POP JUMP JUMPDEST PUSH1 0x0 DUP5 DUP5 DUP5 DUP5 PUSH1 0x40 MLOAD PUSH1 0x20 ADD PUSH2 0x29A SWAP5 SWAP4 SWAP3 SWAP2 SWAP1 PUSH2 0x657 JUMP JUMPDEST PUSH1 0x40 MLOAD PUSH1 0x20 DUP2 DUP4 SUB SUB DUP2 MSTORE SWAP1 PUSH1 0x40 MSTORE DUP1 MLOAD SWAP1 PUSH1 0x20 ADD KECCAK256 PUSH1 0x0 SHR SWAP1 POP SWAP5 SWAP4 POP POP POP POP JUMP JUMPDEST PUSH1 0x0 DUP3 DUP3 PUSH1 0x40 MLOAD PUSH1 0x20 ADD PUSH2 0x2D2 SWAP3 SWAP2 SWAP1 PUSH2 0x6DE JUMP JUMPDEST PUSH1 0x40 MLOAD PUSH1 0x20 DUP2 DUP4 SUB SUB DUP2 MSTORE SWAP1 PUSH1 0x40 MSTORE DUP1 MLOAD SWAP1 PUSH1 0x20 ADD KECCAK256 SWAP1 POP SWAP3 SWAP2 POP POP JUMP JUMPDEST PUSH1 0x0 DUP1 REVERT JUMPDEST PUSH1 0x0 DUP2 SWAP1 POP SWAP2 SWAP1 POP JUMP JUMPDEST PUSH2 0x308 DUP2 PUSH2 0x2F5 JUMP JUMPDEST DUP2 EQ PUSH2 0x313 JUMPI PUSH1 0x0 DUP1 REVERT JUMPDEST POP JUMP JUMPDEST PUSH1 0x0 DUP2 CALLDATALOAD SWAP1 POP PUSH2 0x325 DUP2 PUSH2 0x2FF JUMP JUMPDEST SWAP3 SWAP2 POP POP JUMP JUMPDEST PUSH1 0x0 DUP2 SWAP1 POP SWAP2 SWAP1 POP JUMP JUMPDEST PUSH2 0x33E DUP2 PUSH2 0x32B JUMP JUMPDEST DUP2 EQ PUSH2 0x349 JUMPI PUSH1 0x0 DUP1 REVERT JUMPDEST POP JUMP JUMPDEST PUSH1 0x0 DUP2 CALLDATALOAD SWAP1 POP PUSH2 0x35B DUP2 PUSH2 0x335 JUMP JUMPDEST SWAP3 SWAP2 POP POP JUMP JUMPDEST PUSH1 0x0 DUP1 PUSH1 0x40 DUP4 DUP6 SUB SLT ISZERO PUSH2 0x378 JUMPI PUSH2 0x377 PUSH2 0x2F0 JUMP JUMPDEST JUMPDEST PUSH1 0x0 PUSH2 0x386 DUP6 DUP3 DUP7 ADD PUSH2 0x316 JUMP JUMPDEST SWAP3 POP POP PUSH1 0x20 PUSH2 0x397 DUP6 DUP3 DUP7 ADD PUSH2 0x34C JUMP JUMPDEST SWAP2 POP POP SWAP3 POP SWAP3 SWAP1 POP JUMP JUMPDEST PUSH2 0x3AA DUP2 PUSH2 0x2F5 JUMP JUMPDEST DUP3 MSTORE POP POP JUMP JUMPDEST PUSH1 0x0 PUSH1 0x20 DUP3 ADD SWAP1 POP PUSH2 0x3C5 PUSH1 0x0 DUP4 ADD DUP5 PUSH2 0x3A1 JUMP JUMPDEST SWAP3 SWAP2 POP POP JUMP JUMPDEST PUSH1 0x0 DUP3 DUP3 MSTORE PUSH1 0x20 DUP3 ADD SWAP1 POP SWAP3 SWAP2 POP POP JUMP JUMPDEST PUSH32 0x4F6E6C7920565246436F6F7264696E61746F722063616E2066756C66696C6C00 PUSH1 0x0 DUP3 ADD MSTORE POP JUMP JUMPDEST PUSH1 0x0 PUSH2 0x412 PUSH1 0x1F DUP4 PUSH2 0x3CB JUMP JUMPDEST SWAP2 POP PUSH2 0x41D DUP3 PUSH2 0x3DC JUMP JUMPDEST PUSH1 0x20 DUP3 ADD SWAP1 POP SWAP2 SWAP1 POP JUMP JUMPDEST PUSH1 0x0 PUSH1 0x20 DUP3 ADD SWAP1 POP DUP2 DUP2 SUB PUSH1 0x0 DUP4 ADD MSTORE PUSH2 0x441 DUP2 PUSH2 0x405 JUMP JUMPDEST SWAP1 POP SWAP2 SWAP1 POP JUMP JUMPDEST PUSH2 0x451 DUP2 PUSH2 0x32B JUMP JUMPDEST DUP3 MSTORE POP POP JUMP JUMPDEST PUSH1 0x0 PUSH1 0x40 DUP3 ADD SWAP1 POP PUSH2 0x46C PUSH1 0x0 DUP4 ADD DUP6 PUSH2 0x3A1 JUMP JUMPDEST PUSH2 0x479 PUSH1 0x20 DUP4 ADD DUP5 PUSH2 0x448 JUMP JUMPDEST SWAP4 SWAP3 POP POP POP JUMP JUMPDEST PUSH1 0x0 PUSH20 0xFFFFFFFFFFFFFFFFFFFFFFFFFFFFFFFFFFFFFFFF DUP3 AND SWAP1 POP SWAP2 SWAP1 POP JUMP JUMPDEST PUSH1 0x0 PUSH2 0x4AB DUP3 PUSH2 0x480 JUMP JUMPDEST SWAP1 POP SWAP2 SWAP1 POP JUMP JUMPDEST PUSH2 0x4BB DUP2 PUSH2 0x4A0 JUMP JUMPDEST DUP3 MSTORE POP POP JUMP JUMPDEST PUSH1 0x0 DUP2 MLOAD SWAP1 POP SWAP2 SWAP1 POP JUMP JUMPDEST PUSH1 0x0 DUP3 DUP3 MSTORE PUSH1 0x20 DUP3 ADD SWAP1 POP SWAP3 SWAP2 POP POP JUMP JUMPDEST PUSH1 0x0 JUMPDEST DUP4 DUP2 LT ISZERO PUSH2 0x4FB JUMPI DUP1 DUP3 ADD MLOAD DUP2 DUP5 ADD MSTORE PUSH1 0x20 DUP2 ADD SWAP1 POP PUSH2 0x4E0 JUMP JUMPDEST PUSH1 0x0 DUP5 DUP5 ADD MSTORE POP POP POP POP JUMP JUMPDEST PUSH1 0x0 PUSH1 0x1F NOT PUSH1 0x1F DUP4 ADD AND SWAP1 POP SWAP2 SWAP1 POP JUMP JUMPDEST PUSH1 0x0 PUSH2 0x523 DUP3 PUSH2 0x4C1 JUMP JUMPDEST PUSH2 0x52D DUP2 DUP6 PUSH2 0x4CC JUMP JUMPDEST SWAP4 POP PUSH2 0x53D DUP2 DUP6 PUSH1 0x20 DUP7 ADD PUSH2 0x4DD JUMP JUMPDEST PUSH2 0x546 DUP2 PUSH2 0x507 JUMP JUMPDEST DUP5 ADD SWAP2 POP POP SWAP3 SWAP2 POP POP JUMP JUMPDEST PUSH1 0x0 PUSH1 0x60 DUP3 ADD SWAP1 POP PUSH2 0x566 PUSH1 0x0 DUP4 ADD DUP7 PUSH2 0x4B2 JUMP JUMPDEST PUSH2 0x573 PUSH1 0x20 DUP4 ADD DUP6 PUSH2 0x448 JUMP JUMPDEST DUP2 DUP2 SUB PUSH1 0x40 DUP4 ADD MSTORE PUSH2 0x585 DUP2 DUP5 PUSH2 0x518 JUMP JUMPDEST SWAP1 POP SWAP5 SWAP4 POP POP POP POP JUMP JUMPDEST PUSH1 0x0 DUP2 ISZERO ISZERO SWAP1 POP SWAP2 SWAP1 POP JUMP JUMPDEST PUSH2 0x5A4 DUP2 PUSH2 0x58F JUMP JUMPDEST DUP2 EQ PUSH2 0x5AF JUMPI PUSH1 0x0 DUP1 REVERT JUMPDEST POP JUMP JUMPDEST PUSH1 0x0 DUP2 MLOAD SWAP1 POP PUSH2 0x5C1 DUP2 PUSH2 0x59B JUMP JUMPDEST SWAP3 SWAP2 POP POP JUMP JUMPDEST PUSH1 0x0 PUSH1 0x20 DUP3 DUP5 SUB SLT ISZERO PUSH2 0x5DD JUMPI PUSH2 0x5DC PUSH2 0x2F0 JUMP JUMPDEST JUMPDEST PUSH1 0x0 PUSH2 0x5EB DUP5 DUP3 DUP6 ADD PUSH2 0x5B2 JUMP JUMPDEST SWAP2 POP POP SWAP3 SWAP2 POP POP JUMP JUMPDEST PUSH32 0x4E487B7100000000000000000000000000000000000000000000000000000000 PUSH1 0x0 MSTORE PUSH1 0x11 PUSH1 0x4 MSTORE PUSH1 0x24 PUSH1 0x0 REVERT JUMPDEST PUSH1 0x0 PUSH2 0x62E DUP3 PUSH2 0x32B JUMP JUMPDEST SWAP2 POP PUSH2 0x639 DUP4 PUSH2 0x32B JUMP JUMPDEST SWAP3 POP DUP3 DUP3 ADD SWAP1 POP DUP1 DUP3 GT ISZERO PUSH2 0x651 JUMPI PUSH2 0x650 PUSH2 0x5F4 JUMP JUMPDEST JUMPDEST SWAP3 SWAP2 POP POP JUMP JUMPDEST PUSH1 0x0 PUSH1 0x80 DUP3 ADD SWAP1 POP PUSH2 0x66C PUSH1 0x0 DUP4 ADD DUP8 PUSH2 0x3A1 JUMP JUMPDEST PUSH2 0x679 PUSH1 0x20 DUP4 ADD DUP7 PUSH2 0x448 JUMP JUMPDEST PUSH2 0x686 PUSH1 0x40 DUP4 ADD DUP6 PUSH2 0x4B2 JUMP JUMPDEST PUSH2 0x693 PUSH1 0x60 DUP4 ADD DUP5 PUSH2 0x448 JUMP JUMPDEST SWAP6 SWAP5 POP POP POP POP POP JUMP JUMPDEST PUSH1 0x0 DUP2 SWAP1 POP SWAP2 SWAP1 POP JUMP JUMPDEST PUSH2 0x6B7 PUSH2 0x6B2 DUP3 PUSH2 0x2F5 JUMP JUMPDEST PUSH2 0x69C JUMP JUMPDEST DUP3 MSTORE POP POP JUMP JUMPDEST PUSH1 0x0 DUP2 SWAP1 POP SWAP2 SWAP1 POP JUMP JUMPDEST PUSH2 0x6D8 PUSH2 0x6D3 DUP3 PUSH2 0x32B JUMP JUMPDEST PUSH2 0x6BD JUMP JUMPDEST DUP3 MSTORE POP POP JUMP JUMPDEST PUSH1 0x0 PUSH2 0x6EA DUP3 DUP6 PUSH2 0x6A6 JUMP JUMPDEST PUSH1 0x20 DUP3 ADD SWAP2 POP PUSH2 0x6FA DUP3 DUP5 PUSH2 0x6C7 JUMP JUMPDEST PUSH1 0x20 DUP3 ADD SWAP2 POP DUP2 SWAP1 POP SWAP4 SWAP3 POP POP POP JUMP INVALID LOG2 PUSH5 0x6970667358 0x22 SLT KECCAK256 0xA8 0xDA 0xE9 CREATE2 SWAP16 DUP11 0xC0 CHAINID SWAP3 0xD6 CALLCODE 0xC1 CODECOPY 0xD7 0xEF 0xEC CODECOPY OR 0xBA 0xB5 PUSH32 0x10E8E9BAD5C1DA370387DB64736F6C6343000811003300000000000000000000 "
				},
				"gasEstimates": {
					"creation": {
						"codeDepositCost": "371200",
						"executionCost": "infinite",
						"totalCost": "infinite"
					},
					"external": {
						"getRandomNumber()": "infinite",
						"rawFulfillRandomness(bytes32,uint256)": "infinite"
					},
					"internal": {
						"fulfillRandomness(bytes32,uint256)": "22127"
					}
				},
				"methodIdentifiers": {
					"getRandomNumber()": "dbdff2c1",
					"rawFulfillRandomness(bytes32,uint256)": "94985ddd"
				}
			},
			"storageLayout": {
				"storage": [
					{
						"astId": 79,
						"contract": "docs.chain.link/samples/VRF/VRFv2Consumer.sol:RandomNumberConsumer",
						"label": "nonces",
						"offset": 0,
						"slot": "0",
						"type": "t_mapping(t_bytes32,t_uint256)"
					},
					{
						"astId": 272,
						"contract": "docs.chain.link/samples/VRF/VRFv2Consumer.sol:RandomNumberConsumer",
						"label": "keyHash",
						"offset": 0,
						"slot": "1",
						"type": "t_bytes32"
					},
					{
						"astId": 274,
						"contract": "docs.chain.link/samples/VRF/VRFv2Consumer.sol:RandomNumberConsumer",
						"label": "fee",
						"offset": 0,
						"slot": "2",
						"type": "t_uint256"
					},
					{
						"astId": 276,
						"contract": "docs.chain.link/samples/VRF/VRFv2Consumer.sol:RandomNumberConsumer",
						"label": "randomResult",
						"offset": 0,
						"slot": "3",
						"type": "t_uint256"
					}
				],
				"types": {
					"t_bytes32": {
						"encoding": "inplace",
						"label": "bytes32",
						"numberOfBytes": "32"
					},
					"t_mapping(t_bytes32,t_uint256)": {
						"encoding": "mapping",
						"key": "t_bytes32",
						"label": "mapping(bytes32 => uint256)",
						"numberOfBytes": "32",
						"value": "t_uint256"
					},
					"t_uint256": {
						"encoding": "inplace",
						"label": "uint256",
						"numberOfBytes": "32"
					}
				}
			},
			"userdoc": {
				"kind": "user",
				"methods": {},
				"version": 1
			}
		}
	}
}