{
	"docs.chain.link/samples/VRF/VRFv2Consumer.sol": {
		"RandomNumberConsumer": {
			"abi": [
				{
					"inputs": [],
					"stateMutability": "nonpayable",
					"type": "constructor"
				},
				{
					"inputs": [
						{
							"internalType": "uint256",
							"name": "userProvidedSeed",
							"type": "uint256"
						}
					],
					"name": "getRandomNumber",
					"outputs": [
						{
							"internalType": "bytes32",
							"name": "requestId",
							"type": "bytes32"
						}
					],
					"stateMutability": "nonpayable",
					"type": "function"
				},
				{
					"inputs": [
						{
							"internalType": "bytes32",
							"name": "requestId",
							"type": "bytes32"
						},
						{
							"internalType": "uint256",
							"name": "randomness",
							"type": "uint256"
						}
					],
					"name": "rawFulfillRandomness",
					"outputs": [],
					"stateMutability": "nonpayable",
					"type": "function"
				}
			],
			"devdoc": {
				"kind": "dev",
				"methods": {},
				"version": 1
			},
			"evm": {
				"assembly": "    /* \"docs.chain.link/samples/VRF/VRFv2Consumer.sol\":118:770  contract RandomNumberConsumer is VRFConsumerBase {... */\n  mstore(0x40, 0xc0)\n    /* \"docs.chain.link/samples/VRF/VRFv2Consumer.sol\":238:486  constructor() VRFConsumerBase(0xdD3782915140c8f3b190B5D67eAc6dc5760C46E9, 0xa36085F69e2889c224210F603D836748e7dC0088) public {... */\n  callvalue\n  dup1\n  iszero\n  tag_1\n  jumpi\n  0x00\n  dup1\n  revert\ntag_1:\n  pop\n    /* \"docs.chain.link/samples/VRF/VRFv2Consumer.sol\":268:310  0xdD3782915140c8f3b190B5D67eAc6dc5760C46E9 */\n  0xdd3782915140c8f3b190b5d67eac6dc5760c46e9\n    /* \"docs.chain.link/samples/VRF/VRFv2Consumer.sol\":312:354  0xa36085F69e2889c224210F603D836748e7dC0088 */\n  0xa36085f69e2889c224210f603d836748e7dc0088\n    /* \"@chainlink/contracts/src/v0.8/VRFConsumerBase.sol\":9323:9338  _vrfCoordinator */\n  dup2\n    /* \"@chainlink/contracts/src/v0.8/VRFConsumerBase.sol\":9306:9338  vrfCoordinator = _vrfCoordinator */\n  0xffffffffffffffffffffffffffffffffffffffff\n  and\n  0xa0\n  dup2\n  0xffffffffffffffffffffffffffffffffffffffff\n  and\n  dup2\n  mstore\n  pop\n  pop\n    /* \"@chainlink/contracts/src/v0.8/VRFConsumerBase.sol\":9370:9375  _link */\n  dup1\n    /* \"@chainlink/contracts/src/v0.8/VRFConsumerBase.sol\":9344:9376  LINK = LinkTokenInterface(_link) */\n  0xffffffffffffffffffffffffffffffffffffffff\n  and\n  0x80\n  dup2\n  0xffffffffffffffffffffffffffffffffffffffff\n  and\n  dup2\n  mstore\n  pop\n  pop\n    /* \"@chainlink/contracts/src/v0.8/VRFConsumerBase.sol\":9248:9381  constructor(address _vrfCoordinator, address _link) {... */\n  pop\n  pop\n    /* \"docs.chain.link/samples/VRF/VRFv2Consumer.sol\":383:449  0x6c3699283bda56ad74f6b855546325b68d482e983852a7a82979cc4807b641f4 */\n  0x6c3699283bda56ad74f6b855546325b68d482e983852a7a82979cc4807b641f4\n    /* \"docs.chain.link/samples/VRF/VRFv2Consumer.sol\":373:449  keyHash = 0x6c3699283bda56ad74f6b855546325b68d482e983852a7a82979cc4807b641f4 */\n  0x00\n  shl\n    /* \"docs.chain.link/samples/VRF/VRFv2Consumer.sol\":373:380  keyHash */\n  0x01\n    /* \"docs.chain.link/samples/VRF/VRFv2Consumer.sol\":373:449  keyHash = 0x6c3699283bda56ad74f6b855546325b68d482e983852a7a82979cc4807b641f4 */\n  dup2\n  swap1\n  sstore\n  pop\n    /* \"docs.chain.link/samples/VRF/VRFv2Consumer.sol\":465:478  0.1 * 10 **18 */\n  0x016345785d8a0000\n    /* \"docs.chain.link/samples/VRF/VRFv2Consumer.sol\":459:462  fee */\n  0x02\n    /* \"docs.chain.link/samples/VRF/VRFv2Consumer.sol\":459:478  fee = 0.1 * 10 **18 */\n  dup2\n  swap1\n  sstore\n  pop\n    /* \"docs.chain.link/samples/VRF/VRFv2Consumer.sol\":118:770  contract RandomNumberConsumer is VRFConsumerBase {... */\n  mload(0x80)\n  mload(0xa0)\n  codecopy(0x00, dataOffset(sub_0), dataSize(sub_0))\n  0x00\n  assignImmutable(\"0x6dbb33232cde86c8a04f90a8bed9fc1c5ef520188a14538d96eb100d69bc2a94\")\n  0x00\n  assignImmutable(\"0xb2219b801710730437d0358146c829b62297a059eceaa0b40b27aea2daecf595\")\n  return(0x00, dataSize(sub_0))\nstop\n\nsub_0: assembly {\n        /* \"docs.chain.link/samples/VRF/VRFv2Consumer.sol\":118:770  contract RandomNumberConsumer is VRFConsumerBase {... */\n      mstore(0x40, 0x80)\n      callvalue\n      dup1\n      iszero\n      tag_1\n      jumpi\n      0x00\n      dup1\n      revert\n    tag_1:\n      pop\n      jumpi(tag_2, lt(calldatasize, 0x04))\n      shr(0xe0, calldataload(0x00))\n      dup1\n      0x94985ddd\n      eq\n      tag_3\n      jumpi\n      dup1\n      0xb37217a4\n      eq\n      tag_4\n      jumpi\n    tag_2:\n      0x00\n      dup1\n      revert\n        /* \"@chainlink/contracts/src/v0.8/VRFConsumerBase.sol\":9576:9783  function rawFulfillRandomness(bytes32 requestId, uint256 randomness) external {... */\n    tag_3:\n      tag_5\n      0x04\n      dup1\n      calldatasize\n      sub\n      dup2\n      add\n      swap1\n      tag_6\n      swap2\n      swap1\n      tag_7\n      jump\t// in\n    tag_6:\n      tag_8\n      jump\t// in\n    tag_5:\n      stop\n        /* \"docs.chain.link/samples/VRF/VRFv2Consumer.sol\":492:633  function getRandomNumber(uint256 userProvidedSeed) public returns (bytes32 requestId) {... */\n    tag_4:\n      tag_9\n      0x04\n      dup1\n      calldatasize\n      sub\n      dup2\n      add\n      swap1\n      tag_10\n      swap2\n      swap1\n      tag_11\n      jump\t// in\n    tag_10:\n      tag_12\n      jump\t// in\n    tag_9:\n      mload(0x40)\n      tag_13\n      swap2\n      swap1\n      tag_14\n      jump\t// in\n    tag_13:\n      mload(0x40)\n      dup1\n      swap2\n      sub\n      swap1\n      return\n        /* \"@chainlink/contracts/src/v0.8/VRFConsumerBase.sol\":9576:9783  function rawFulfillRandomness(bytes32 requestId, uint256 randomness) external {... */\n    tag_8:\n        /* \"@chainlink/contracts/src/v0.8/VRFConsumerBase.sol\":9682:9696  vrfCoordinator */\n      immutable(\"0x6dbb33232cde86c8a04f90a8bed9fc1c5ef520188a14538d96eb100d69bc2a94\")\n        /* \"@chainlink/contracts/src/v0.8/VRFConsumerBase.sol\":9668:9696  msg.sender == vrfCoordinator */\n      0xffffffffffffffffffffffffffffffffffffffff\n      and\n        /* \"@chainlink/contracts/src/v0.8/VRFConsumerBase.sol\":9668:9678  msg.sender */\n      caller\n        /* \"@chainlink/contracts/src/v0.8/VRFConsumerBase.sol\":9668:9696  msg.sender == vrfCoordinator */\n      0xffffffffffffffffffffffffffffffffffffffff\n      and\n      eq\n        /* \"@chainlink/contracts/src/v0.8/VRFConsumerBase.sol\":9660:9732  require(msg.sender == vrfCoordinator, \"Only VRFCoordinator can fulfill\") */\n      tag_16\n      jumpi\n      mload(0x40)\n      0x08c379a000000000000000000000000000000000000000000000000000000000\n      dup2\n      mstore\n      0x04\n      add\n      tag_17\n      swap1\n      tag_18\n      jump\t// in\n    tag_17:\n      mload(0x40)\n      dup1\n      swap2\n      sub\n      swap1\n      revert\n    tag_16:\n        /* \"@chainlink/contracts/src/v0.8/VRFConsumerBase.sol\":9738:9778  fulfillRandomness(requestId, randomness) */\n      tag_19\n        /* \"@chainlink/contracts/src/v0.8/VRFConsumerBase.sol\":9756:9765  requestId */\n      dup3\n        /* \"@chainlink/contracts/src/v0.8/VRFConsumerBase.sol\":9767:9777  randomness */\n      dup3\n        /* \"@chainlink/contracts/src/v0.8/VRFConsumerBase.sol\":9738:9755  fulfillRandomness */\n      tag_20\n        /* \"@chainlink/contracts/src/v0.8/VRFConsumerBase.sol\":9738:9778  fulfillRandomness(requestId, randomness) */\n      jump\t// in\n    tag_19:\n        /* \"@chainlink/contracts/src/v0.8/VRFConsumerBase.sol\":9576:9783  function rawFulfillRandomness(bytes32 requestId, uint256 randomness) external {... */\n      pop\n      pop\n      jump\t// out\n        /* \"docs.chain.link/samples/VRF/VRFv2Consumer.sol\":492:633  function getRandomNumber(uint256 userProvidedSeed) public returns (bytes32 requestId) {... */\n    tag_12:\n        /* \"docs.chain.link/samples/VRF/VRFv2Consumer.sol\":559:576  bytes32 requestId */\n      0x00\n        /* \"docs.chain.link/samples/VRF/VRFv2Consumer.sol\":595:626  requestRandomness(keyHash, fee) */\n      tag_22\n        /* \"docs.chain.link/samples/VRF/VRFv2Consumer.sol\":613:620  keyHash */\n      sload(0x01)\n        /* \"docs.chain.link/samples/VRF/VRFv2Consumer.sol\":622:625  fee */\n      sload(0x02)\n        /* \"docs.chain.link/samples/VRF/VRFv2Consumer.sol\":595:612  requestRandomness */\n      tag_23\n        /* \"docs.chain.link/samples/VRF/VRFv2Consumer.sol\":595:626  requestRandomness(keyHash, fee) */\n      jump\t// in\n    tag_22:\n        /* \"docs.chain.link/samples/VRF/VRFv2Consumer.sol\":588:626  return requestRandomness(keyHash, fee) */\n      swap1\n      pop\n        /* \"docs.chain.link/samples/VRF/VRFv2Consumer.sol\":492:633  function getRandomNumber(uint256 userProvidedSeed) public returns (bytes32 requestId) {... */\n      swap2\n      swap1\n      pop\n      jump\t// out\n        /* \"docs.chain.link/samples/VRF/VRFv2Consumer.sol\":639:765  function fulfillRandomness(bytes32 requestId, uint256 randomness) internal override {... */\n    tag_20:\n        /* \"docs.chain.link/samples/VRF/VRFv2Consumer.sol\":748:758  randomness */\n      dup1\n        /* \"docs.chain.link/samples/VRF/VRFv2Consumer.sol\":733:745  randomResult */\n      0x03\n        /* \"docs.chain.link/samples/VRF/VRFv2Consumer.sol\":733:758  randomResult = randomness */\n      dup2\n      swap1\n      sstore\n      pop\n        /* \"docs.chain.link/samples/VRF/VRFv2Consumer.sol\":639:765  function fulfillRandomness(bytes32 requestId, uint256 randomness) internal override {... */\n      pop\n      pop\n      jump\t// out\n        /* \"@chainlink/contracts/src/v0.8/VRFConsumerBase.sol\":7732:8752  function requestRandomness(bytes32 _keyHash, uint256 _fee) internal returns (bytes32 requestId) {... */\n    tag_23:\n        /* \"@chainlink/contracts/src/v0.8/VRFConsumerBase.sol\":7809:7826  bytes32 requestId */\n      0x00\n        /* \"@chainlink/contracts/src/v0.8/VRFConsumerBase.sol\":7834:7838  LINK */\n      immutable(\"0xb2219b801710730437d0358146c829b62297a059eceaa0b40b27aea2daecf595\")\n        /* \"@chainlink/contracts/src/v0.8/VRFConsumerBase.sol\":7834:7854  LINK.transferAndCall */\n      0xffffffffffffffffffffffffffffffffffffffff\n      and\n      0x4000aea0\n        /* \"@chainlink/contracts/src/v0.8/VRFConsumerBase.sol\":7855:7869  vrfCoordinator */\n      immutable(\"0x6dbb33232cde86c8a04f90a8bed9fc1c5ef520188a14538d96eb100d69bc2a94\")\n        /* \"@chainlink/contracts/src/v0.8/VRFConsumerBase.sol\":7871:7875  _fee */\n      dup5\n        /* \"@chainlink/contracts/src/v0.8/VRFConsumerBase.sol\":7888:7896  _keyHash */\n      dup7\n        /* \"@chainlink/contracts/src/v0.8/VRFConsumerBase.sol\":6589:6590  0 */\n      0x00\n        /* \"@chainlink/contracts/src/v0.8/VRFConsumerBase.sol\":7877:7920  abi.encode(_keyHash, USER_SEED_PLACEHOLDER) */\n      add(0x20, mload(0x40))\n      tag_26\n      swap3\n      swap2\n      swap1\n      tag_27\n      jump\t// in\n    tag_26:\n      mload(0x40)\n      0x20\n      dup2\n      dup4\n      sub\n      sub\n      dup2\n      mstore\n      swap1\n      0x40\n      mstore\n        /* \"@chainlink/contracts/src/v0.8/VRFConsumerBase.sol\":7834:7921  LINK.transferAndCall(vrfCoordinator, _fee, abi.encode(_keyHash, USER_SEED_PLACEHOLDER)) */\n      mload(0x40)\n      dup5\n      0xffffffff\n      and\n      0xe0\n      shl\n      dup2\n      mstore\n      0x04\n      add\n      tag_28\n      swap4\n      swap3\n      swap2\n      swap1\n      tag_29\n      jump\t// in\n    tag_28:\n      0x20\n      mload(0x40)\n      dup1\n      dup4\n      sub\n      dup2\n      0x00\n      dup8\n      gas\n      call\n      iszero\n      dup1\n      iszero\n      tag_31\n      jumpi\n      returndatasize\n      0x00\n      dup1\n      returndatacopy\n      revert(0x00, returndatasize)\n    tag_31:\n      pop\n      pop\n      pop\n      pop\n      mload(0x40)\n      returndatasize\n      not(0x1f)\n      0x1f\n      dup3\n      add\n      and\n      dup3\n      add\n      dup1\n      0x40\n      mstore\n      pop\n      dup2\n      add\n      swap1\n      tag_32\n      swap2\n      swap1\n      tag_33\n      jump\t// in\n    tag_32:\n      pop\n        /* \"@chainlink/contracts/src/v0.8/VRFConsumerBase.sol\":8152:8167  uint256 vRFSeed */\n      0x00\n        /* \"@chainlink/contracts/src/v0.8/VRFConsumerBase.sol\":8170:8252  makeVRFInputSeed(_keyHash, USER_SEED_PLACEHOLDER, address(this), nonces[_keyHash]) */\n      tag_34\n        /* \"@chainlink/contracts/src/v0.8/VRFConsumerBase.sol\":8187:8195  _keyHash */\n      dup5\n        /* \"@chainlink/contracts/src/v0.8/VRFConsumerBase.sol\":6589:6590  0 */\n      0x00\n        /* \"@chainlink/contracts/src/v0.8/VRFConsumerBase.sol\":8228:8232  this */\n      address\n        /* \"@chainlink/contracts/src/v0.8/VRFConsumerBase.sol\":8235:8241  nonces */\n      0x00\n        /* \"@chainlink/contracts/src/v0.8/VRFConsumerBase.sol\":8235:8251  nonces[_keyHash] */\n      dup1\n        /* \"@chainlink/contracts/src/v0.8/VRFConsumerBase.sol\":8242:8250  _keyHash */\n      dup10\n        /* \"@chainlink/contracts/src/v0.8/VRFConsumerBase.sol\":8235:8251  nonces[_keyHash] */\n      dup2\n      mstore\n      0x20\n      add\n      swap1\n      dup2\n      mstore\n      0x20\n      add\n      0x00\n      keccak256\n      sload\n        /* \"@chainlink/contracts/src/v0.8/VRFConsumerBase.sol\":8170:8186  makeVRFInputSeed */\n      tag_35\n        /* \"@chainlink/contracts/src/v0.8/VRFConsumerBase.sol\":8170:8252  makeVRFInputSeed(_keyHash, USER_SEED_PLACEHOLDER, address(this), nonces[_keyHash]) */\n      jump\t// in\n    tag_34:\n        /* \"@chainlink/contracts/src/v0.8/VRFConsumerBase.sol\":8152:8252  uint256 vRFSeed = makeVRFInputSeed(_keyHash, USER_SEED_PLACEHOLDER, address(this), nonces[_keyHash]) */\n      swap1\n      pop\n        /* \"@chainlink/contracts/src/v0.8/VRFConsumerBase.sol\":8701:8702  1 */\n      0x01\n        /* \"@chainlink/contracts/src/v0.8/VRFConsumerBase.sol\":8682:8688  nonces */\n      0x00\n        /* \"@chainlink/contracts/src/v0.8/VRFConsumerBase.sol\":8682:8698  nonces[_keyHash] */\n      dup1\n        /* \"@chainlink/contracts/src/v0.8/VRFConsumerBase.sol\":8689:8697  _keyHash */\n      dup7\n        /* \"@chainlink/contracts/src/v0.8/VRFConsumerBase.sol\":8682:8698  nonces[_keyHash] */\n      dup2\n      mstore\n      0x20\n      add\n      swap1\n      dup2\n      mstore\n      0x20\n      add\n      0x00\n      keccak256\n      sload\n        /* \"@chainlink/contracts/src/v0.8/VRFConsumerBase.sol\":8682:8702  nonces[_keyHash] + 1 */\n      tag_36\n      swap2\n      swap1\n      tag_37\n      jump\t// in\n    tag_36:\n        /* \"@chainlink/contracts/src/v0.8/VRFConsumerBase.sol\":8663:8669  nonces */\n      0x00\n        /* \"@chainlink/contracts/src/v0.8/VRFConsumerBase.sol\":8663:8679  nonces[_keyHash] */\n      dup1\n        /* \"@chainlink/contracts/src/v0.8/VRFConsumerBase.sol\":8670:8678  _keyHash */\n      dup7\n        /* \"@chainlink/contracts/src/v0.8/VRFConsumerBase.sol\":8663:8679  nonces[_keyHash] */\n      dup2\n      mstore\n      0x20\n      add\n      swap1\n      dup2\n      mstore\n      0x20\n      add\n      0x00\n      keccak256\n        /* \"@chainlink/contracts/src/v0.8/VRFConsumerBase.sol\":8663:8702  nonces[_keyHash] = nonces[_keyHash] + 1 */\n      dup2\n      swap1\n      sstore\n      pop\n        /* \"@chainlink/contracts/src/v0.8/VRFConsumerBase.sol\":8715:8747  makeRequestId(_keyHash, vRFSeed) */\n      tag_38\n        /* \"@chainlink/contracts/src/v0.8/VRFConsumerBase.sol\":8729:8737  _keyHash */\n      dup5\n        /* \"@chainlink/contracts/src/v0.8/VRFConsumerBase.sol\":8739:8746  vRFSeed */\n      dup3\n        /* \"@chainlink/contracts/src/v0.8/VRFConsumerBase.sol\":8715:8728  makeRequestId */\n      tag_39\n        /* \"@chainlink/contracts/src/v0.8/VRFConsumerBase.sol\":8715:8747  makeRequestId(_keyHash, vRFSeed) */\n      jump\t// in\n    tag_38:\n        /* \"@chainlink/contracts/src/v0.8/VRFConsumerBase.sol\":8708:8747  return makeRequestId(_keyHash, vRFSeed) */\n      swap2\n      pop\n      pop\n        /* \"@chainlink/contracts/src/v0.8/VRFConsumerBase.sol\":7732:8752  function requestRandomness(bytes32 _keyHash, uint256 _fee) internal returns (bytes32 requestId) {... */\n      swap3\n      swap2\n      pop\n      pop\n      jump\t// out\n        /* \"@chainlink/contracts/src/v0.8/VRFRequestIDBase.sol\":796:1036  function makeVRFInputSeed(... */\n    tag_35:\n        /* \"@chainlink/contracts/src/v0.8/VRFRequestIDBase.sol\":938:945  uint256 */\n      0x00\n        /* \"@chainlink/contracts/src/v0.8/VRFRequestIDBase.sol\":989:997  _keyHash */\n      dup5\n        /* \"@chainlink/contracts/src/v0.8/VRFRequestIDBase.sol\":999:1008  _userSeed */\n      dup5\n        /* \"@chainlink/contracts/src/v0.8/VRFRequestIDBase.sol\":1010:1020  _requester */\n      dup5\n        /* \"@chainlink/contracts/src/v0.8/VRFRequestIDBase.sol\":1022:1028  _nonce */\n      dup5\n        /* \"@chainlink/contracts/src/v0.8/VRFRequestIDBase.sol\":978:1029  abi.encode(_keyHash, _userSeed, _requester, _nonce) */\n      add(0x20, mload(0x40))\n      tag_41\n      swap5\n      swap4\n      swap3\n      swap2\n      swap1\n      tag_42\n      jump\t// in\n    tag_41:\n      mload(0x40)\n      0x20\n      dup2\n      dup4\n      sub\n      sub\n      dup2\n      mstore\n      swap1\n      0x40\n      mstore\n        /* \"@chainlink/contracts/src/v0.8/VRFRequestIDBase.sol\":968:1030  keccak256(abi.encode(_keyHash, _userSeed, _requester, _nonce)) */\n      dup1\n      mload\n      swap1\n      0x20\n      add\n      keccak256\n        /* \"@chainlink/contracts/src/v0.8/VRFRequestIDBase.sol\":960:1031  uint256(keccak256(abi.encode(_keyHash, _userSeed, _requester, _nonce))) */\n      0x00\n      shr\n        /* \"@chainlink/contracts/src/v0.8/VRFRequestIDBase.sol\":953:1031  return uint256(keccak256(abi.encode(_keyHash, _userSeed, _requester, _nonce))) */\n      swap1\n      pop\n        /* \"@chainlink/contracts/src/v0.8/VRFRequestIDBase.sol\":796:1036  function makeVRFInputSeed(... */\n      swap5\n      swap4\n      pop\n      pop\n      pop\n      pop\n      jump\t// out\n        /* \"@chainlink/contracts/src/v0.8/VRFRequestIDBase.sol\":1416:1582  function makeRequestId(bytes32 _keyHash, uint256 _vRFInputSeed) internal pure returns (bytes32) {... */\n    tag_39:\n        /* \"@chainlink/contracts/src/v0.8/VRFRequestIDBase.sol\":1503:1510  bytes32 */\n      0x00\n        /* \"@chainlink/contracts/src/v0.8/VRFRequestIDBase.sol\":1552:1560  _keyHash */\n      dup3\n        /* \"@chainlink/contracts/src/v0.8/VRFRequestIDBase.sol\":1562:1575  _vRFInputSeed */\n      dup3\n        /* \"@chainlink/contracts/src/v0.8/VRFRequestIDBase.sol\":1535:1576  abi.encodePacked(_keyHash, _vRFInputSeed) */\n      add(0x20, mload(0x40))\n      tag_44\n      swap3\n      swap2\n      swap1\n      tag_45\n      jump\t// in\n    tag_44:\n      mload(0x40)\n      0x20\n      dup2\n      dup4\n      sub\n      sub\n      dup2\n      mstore\n      swap1\n      0x40\n      mstore\n        /* \"@chainlink/contracts/src/v0.8/VRFRequestIDBase.sol\":1525:1577  keccak256(abi.encodePacked(_keyHash, _vRFInputSeed)) */\n      dup1\n      mload\n      swap1\n      0x20\n      add\n      keccak256\n        /* \"@chainlink/contracts/src/v0.8/VRFRequestIDBase.sol\":1518:1577  return keccak256(abi.encodePacked(_keyHash, _vRFInputSeed)) */\n      swap1\n      pop\n        /* \"@chainlink/contracts/src/v0.8/VRFRequestIDBase.sol\":1416:1582  function makeRequestId(bytes32 _keyHash, uint256 _vRFInputSeed) internal pure returns (bytes32) {... */\n      swap3\n      swap2\n      pop\n      pop\n      jump\t// out\n        /* \"#utility.yul\":88:205   */\n    tag_47:\n        /* \"#utility.yul\":197:198   */\n      0x00\n        /* \"#utility.yul\":194:195   */\n      dup1\n        /* \"#utility.yul\":187:199   */\n      revert\n        /* \"#utility.yul\":334:411   */\n    tag_49:\n        /* \"#utility.yul\":371:378   */\n      0x00\n        /* \"#utility.yul\":400:405   */\n      dup2\n        /* \"#utility.yul\":389:405   */\n      swap1\n      pop\n        /* \"#utility.yul\":334:411   */\n      swap2\n      swap1\n      pop\n      jump\t// out\n        /* \"#utility.yul\":417:539   */\n    tag_50:\n        /* \"#utility.yul\":490:514   */\n      tag_82\n        /* \"#utility.yul\":508:513   */\n      dup2\n        /* \"#utility.yul\":490:514   */\n      tag_49\n      jump\t// in\n    tag_82:\n        /* \"#utility.yul\":483:488   */\n      dup2\n        /* \"#utility.yul\":480:515   */\n      eq\n        /* \"#utility.yul\":470:533   */\n      tag_83\n      jumpi\n        /* \"#utility.yul\":529:530   */\n      0x00\n        /* \"#utility.yul\":526:527   */\n      dup1\n        /* \"#utility.yul\":519:531   */\n      revert\n        /* \"#utility.yul\":470:533   */\n    tag_83:\n        /* \"#utility.yul\":417:539   */\n      pop\n      jump\t// out\n        /* \"#utility.yul\":545:684   */\n    tag_51:\n        /* \"#utility.yul\":591:596   */\n      0x00\n        /* \"#utility.yul\":629:635   */\n      dup2\n        /* \"#utility.yul\":616:636   */\n      calldataload\n        /* \"#utility.yul\":607:636   */\n      swap1\n      pop\n        /* \"#utility.yul\":645:678   */\n      tag_85\n        /* \"#utility.yul\":672:677   */\n      dup2\n        /* \"#utility.yul\":645:678   */\n      tag_50\n      jump\t// in\n    tag_85:\n        /* \"#utility.yul\":545:684   */\n      swap3\n      swap2\n      pop\n      pop\n      jump\t// out\n        /* \"#utility.yul\":690:767   */\n    tag_52:\n        /* \"#utility.yul\":727:734   */\n      0x00\n        /* \"#utility.yul\":756:761   */\n      dup2\n        /* \"#utility.yul\":745:761   */\n      swap1\n      pop\n        /* \"#utility.yul\":690:767   */\n      swap2\n      swap1\n      pop\n      jump\t// out\n        /* \"#utility.yul\":773:895   */\n    tag_53:\n        /* \"#utility.yul\":846:870   */\n      tag_88\n        /* \"#utility.yul\":864:869   */\n      dup2\n        /* \"#utility.yul\":846:870   */\n      tag_52\n      jump\t// in\n    tag_88:\n        /* \"#utility.yul\":839:844   */\n      dup2\n        /* \"#utility.yul\":836:871   */\n      eq\n        /* \"#utility.yul\":826:889   */\n      tag_89\n      jumpi\n        /* \"#utility.yul\":885:886   */\n      0x00\n        /* \"#utility.yul\":882:883   */\n      dup1\n        /* \"#utility.yul\":875:887   */\n      revert\n        /* \"#utility.yul\":826:889   */\n    tag_89:\n        /* \"#utility.yul\":773:895   */\n      pop\n      jump\t// out\n        /* \"#utility.yul\":901:1040   */\n    tag_54:\n        /* \"#utility.yul\":947:952   */\n      0x00\n        /* \"#utility.yul\":985:991   */\n      dup2\n        /* \"#utility.yul\":972:992   */\n      calldataload\n        /* \"#utility.yul\":963:992   */\n      swap1\n      pop\n        /* \"#utility.yul\":1001:1034   */\n      tag_91\n        /* \"#utility.yul\":1028:1033   */\n      dup2\n        /* \"#utility.yul\":1001:1034   */\n      tag_53\n      jump\t// in\n    tag_91:\n        /* \"#utility.yul\":901:1040   */\n      swap3\n      swap2\n      pop\n      pop\n      jump\t// out\n        /* \"#utility.yul\":1046:1520   */\n    tag_7:\n        /* \"#utility.yul\":1114:1120   */\n      0x00\n        /* \"#utility.yul\":1122:1128   */\n      dup1\n        /* \"#utility.yul\":1171:1173   */\n      0x40\n        /* \"#utility.yul\":1159:1168   */\n      dup4\n        /* \"#utility.yul\":1150:1157   */\n      dup6\n        /* \"#utility.yul\":1146:1169   */\n      sub\n        /* \"#utility.yul\":1142:1174   */\n      slt\n        /* \"#utility.yul\":1139:1258   */\n      iszero\n      tag_93\n      jumpi\n        /* \"#utility.yul\":1177:1256   */\n      tag_94\n      tag_47\n      jump\t// in\n    tag_94:\n        /* \"#utility.yul\":1139:1258   */\n    tag_93:\n        /* \"#utility.yul\":1297:1298   */\n      0x00\n        /* \"#utility.yul\":1322:1375   */\n      tag_95\n        /* \"#utility.yul\":1367:1374   */\n      dup6\n        /* \"#utility.yul\":1358:1364   */\n      dup3\n        /* \"#utility.yul\":1347:1356   */\n      dup7\n        /* \"#utility.yul\":1343:1365   */\n      add\n        /* \"#utility.yul\":1322:1375   */\n      tag_51\n      jump\t// in\n    tag_95:\n        /* \"#utility.yul\":1312:1375   */\n      swap3\n      pop\n        /* \"#utility.yul\":1268:1385   */\n      pop\n        /* \"#utility.yul\":1424:1426   */\n      0x20\n        /* \"#utility.yul\":1450:1503   */\n      tag_96\n        /* \"#utility.yul\":1495:1502   */\n      dup6\n        /* \"#utility.yul\":1486:1492   */\n      dup3\n        /* \"#utility.yul\":1475:1484   */\n      dup7\n        /* \"#utility.yul\":1471:1493   */\n      add\n        /* \"#utility.yul\":1450:1503   */\n      tag_54\n      jump\t// in\n    tag_96:\n        /* \"#utility.yul\":1440:1503   */\n      swap2\n      pop\n        /* \"#utility.yul\":1395:1513   */\n      pop\n        /* \"#utility.yul\":1046:1520   */\n      swap3\n      pop\n      swap3\n      swap1\n      pop\n      jump\t// out\n        /* \"#utility.yul\":1526:1855   */\n    tag_11:\n        /* \"#utility.yul\":1585:1591   */\n      0x00\n        /* \"#utility.yul\":1634:1636   */\n      0x20\n        /* \"#utility.yul\":1622:1631   */\n      dup3\n        /* \"#utility.yul\":1613:1620   */\n      dup5\n        /* \"#utility.yul\":1609:1632   */\n      sub\n        /* \"#utility.yul\":1605:1637   */\n      slt\n        /* \"#utility.yul\":1602:1721   */\n      iszero\n      tag_98\n      jumpi\n        /* \"#utility.yul\":1640:1719   */\n      tag_99\n      tag_47\n      jump\t// in\n    tag_99:\n        /* \"#utility.yul\":1602:1721   */\n    tag_98:\n        /* \"#utility.yul\":1760:1761   */\n      0x00\n        /* \"#utility.yul\":1785:1838   */\n      tag_100\n        /* \"#utility.yul\":1830:1837   */\n      dup5\n        /* \"#utility.yul\":1821:1827   */\n      dup3\n        /* \"#utility.yul\":1810:1819   */\n      dup6\n        /* \"#utility.yul\":1806:1828   */\n      add\n        /* \"#utility.yul\":1785:1838   */\n      tag_54\n      jump\t// in\n    tag_100:\n        /* \"#utility.yul\":1775:1838   */\n      swap2\n      pop\n        /* \"#utility.yul\":1731:1848   */\n      pop\n        /* \"#utility.yul\":1526:1855   */\n      swap3\n      swap2\n      pop\n      pop\n      jump\t// out\n        /* \"#utility.yul\":1861:1979   */\n    tag_55:\n        /* \"#utility.yul\":1948:1972   */\n      tag_102\n        /* \"#utility.yul\":1966:1971   */\n      dup2\n        /* \"#utility.yul\":1948:1972   */\n      tag_49\n      jump\t// in\n    tag_102:\n        /* \"#utility.yul\":1943:1946   */\n      dup3\n        /* \"#utility.yul\":1936:1973   */\n      mstore\n        /* \"#utility.yul\":1861:1979   */\n      pop\n      pop\n      jump\t// out\n        /* \"#utility.yul\":1985:2207   */\n    tag_14:\n        /* \"#utility.yul\":2078:2082   */\n      0x00\n        /* \"#utility.yul\":2116:2118   */\n      0x20\n        /* \"#utility.yul\":2105:2114   */\n      dup3\n        /* \"#utility.yul\":2101:2119   */\n      add\n        /* \"#utility.yul\":2093:2119   */\n      swap1\n      pop\n        /* \"#utility.yul\":2129:2200   */\n      tag_104\n        /* \"#utility.yul\":2197:2198   */\n      0x00\n        /* \"#utility.yul\":2186:2195   */\n      dup4\n        /* \"#utility.yul\":2182:2199   */\n      add\n        /* \"#utility.yul\":2173:2179   */\n      dup5\n        /* \"#utility.yul\":2129:2200   */\n      tag_55\n      jump\t// in\n    tag_104:\n        /* \"#utility.yul\":1985:2207   */\n      swap3\n      swap2\n      pop\n      pop\n      jump\t// out\n        /* \"#utility.yul\":2213:2382   */\n    tag_56:\n        /* \"#utility.yul\":2297:2308   */\n      0x00\n        /* \"#utility.yul\":2331:2337   */\n      dup3\n        /* \"#utility.yul\":2326:2329   */\n      dup3\n        /* \"#utility.yul\":2319:2338   */\n      mstore\n        /* \"#utility.yul\":2371:2375   */\n      0x20\n        /* \"#utility.yul\":2366:2369   */\n      dup3\n        /* \"#utility.yul\":2362:2376   */\n      add\n        /* \"#utility.yul\":2347:2376   */\n      swap1\n      pop\n        /* \"#utility.yul\":2213:2382   */\n      swap3\n      swap2\n      pop\n      pop\n      jump\t// out\n        /* \"#utility.yul\":2388:2569   */\n    tag_57:\n        /* \"#utility.yul\":2528:2561   */\n      0x4f6e6c7920565246436f6f7264696e61746f722063616e2066756c66696c6c00\n        /* \"#utility.yul\":2524:2525   */\n      0x00\n        /* \"#utility.yul\":2516:2522   */\n      dup3\n        /* \"#utility.yul\":2512:2526   */\n      add\n        /* \"#utility.yul\":2505:2562   */\n      mstore\n        /* \"#utility.yul\":2388:2569   */\n      pop\n      jump\t// out\n        /* \"#utility.yul\":2575:2941   */\n    tag_58:\n        /* \"#utility.yul\":2717:2720   */\n      0x00\n        /* \"#utility.yul\":2738:2805   */\n      tag_108\n        /* \"#utility.yul\":2802:2804   */\n      0x1f\n        /* \"#utility.yul\":2797:2800   */\n      dup4\n        /* \"#utility.yul\":2738:2805   */\n      tag_56\n      jump\t// in\n    tag_108:\n        /* \"#utility.yul\":2731:2805   */\n      swap2\n      pop\n        /* \"#utility.yul\":2814:2907   */\n      tag_109\n        /* \"#utility.yul\":2903:2906   */\n      dup3\n        /* \"#utility.yul\":2814:2907   */\n      tag_57\n      jump\t// in\n    tag_109:\n        /* \"#utility.yul\":2932:2934   */\n      0x20\n        /* \"#utility.yul\":2927:2930   */\n      dup3\n        /* \"#utility.yul\":2923:2935   */\n      add\n        /* \"#utility.yul\":2916:2935   */\n      swap1\n      pop\n        /* \"#utility.yul\":2575:2941   */\n      swap2\n      swap1\n      pop\n      jump\t// out\n        /* \"#utility.yul\":2947:3366   */\n    tag_18:\n        /* \"#utility.yul\":3113:3117   */\n      0x00\n        /* \"#utility.yul\":3151:3153   */\n      0x20\n        /* \"#utility.yul\":3140:3149   */\n      dup3\n        /* \"#utility.yul\":3136:3154   */\n      add\n        /* \"#utility.yul\":3128:3154   */\n      swap1\n      pop\n        /* \"#utility.yul\":3200:3209   */\n      dup2\n        /* \"#utility.yul\":3194:3198   */\n      dup2\n        /* \"#utility.yul\":3190:3210   */\n      sub\n        /* \"#utility.yul\":3186:3187   */\n      0x00\n        /* \"#utility.yul\":3175:3184   */\n      dup4\n        /* \"#utility.yul\":3171:3188   */\n      add\n        /* \"#utility.yul\":3164:3211   */\n      mstore\n        /* \"#utility.yul\":3228:3359   */\n      tag_111\n        /* \"#utility.yul\":3354:3358   */\n      dup2\n        /* \"#utility.yul\":3228:3359   */\n      tag_58\n      jump\t// in\n    tag_111:\n        /* \"#utility.yul\":3220:3359   */\n      swap1\n      pop\n        /* \"#utility.yul\":2947:3366   */\n      swap2\n      swap1\n      pop\n      jump\t// out\n        /* \"#utility.yul\":3372:3490   */\n    tag_59:\n        /* \"#utility.yul\":3459:3483   */\n      tag_113\n        /* \"#utility.yul\":3477:3482   */\n      dup2\n        /* \"#utility.yul\":3459:3483   */\n      tag_52\n      jump\t// in\n    tag_113:\n        /* \"#utility.yul\":3454:3457   */\n      dup3\n        /* \"#utility.yul\":3447:3484   */\n      mstore\n        /* \"#utility.yul\":3372:3490   */\n      pop\n      pop\n      jump\t// out\n        /* \"#utility.yul\":3496:3828   */\n    tag_27:\n        /* \"#utility.yul\":3617:3621   */\n      0x00\n        /* \"#utility.yul\":3655:3657   */\n      0x40\n        /* \"#utility.yul\":3644:3653   */\n      dup3\n        /* \"#utility.yul\":3640:3658   */\n      add\n        /* \"#utility.yul\":3632:3658   */\n      swap1\n      pop\n        /* \"#utility.yul\":3668:3739   */\n      tag_115\n        /* \"#utility.yul\":3736:3737   */\n      0x00\n        /* \"#utility.yul\":3725:3734   */\n      dup4\n        /* \"#utility.yul\":3721:3738   */\n      add\n        /* \"#utility.yul\":3712:3718   */\n      dup6\n        /* \"#utility.yul\":3668:3739   */\n      tag_55\n      jump\t// in\n    tag_115:\n        /* \"#utility.yul\":3749:3821   */\n      tag_116\n        /* \"#utility.yul\":3817:3819   */\n      0x20\n        /* \"#utility.yul\":3806:3815   */\n      dup4\n        /* \"#utility.yul\":3802:3820   */\n      add\n        /* \"#utility.yul\":3793:3799   */\n      dup5\n        /* \"#utility.yul\":3749:3821   */\n      tag_59\n      jump\t// in\n    tag_116:\n        /* \"#utility.yul\":3496:3828   */\n      swap4\n      swap3\n      pop\n      pop\n      pop\n      jump\t// out\n        /* \"#utility.yul\":3834:3960   */\n    tag_60:\n        /* \"#utility.yul\":3871:3878   */\n      0x00\n        /* \"#utility.yul\":3911:3953   */\n      0xffffffffffffffffffffffffffffffffffffffff\n        /* \"#utility.yul\":3904:3909   */\n      dup3\n        /* \"#utility.yul\":3900:3954   */\n      and\n        /* \"#utility.yul\":3889:3954   */\n      swap1\n      pop\n        /* \"#utility.yul\":3834:3960   */\n      swap2\n      swap1\n      pop\n      jump\t// out\n        /* \"#utility.yul\":3966:4062   */\n    tag_61:\n        /* \"#utility.yul\":4003:4010   */\n      0x00\n        /* \"#utility.yul\":4032:4056   */\n      tag_119\n        /* \"#utility.yul\":4050:4055   */\n      dup3\n        /* \"#utility.yul\":4032:4056   */\n      tag_60\n      jump\t// in\n    tag_119:\n        /* \"#utility.yul\":4021:4056   */\n      swap1\n      pop\n        /* \"#utility.yul\":3966:4062   */\n      swap2\n      swap1\n      pop\n      jump\t// out\n        /* \"#utility.yul\":4068:4186   */\n    tag_62:\n        /* \"#utility.yul\":4155:4179   */\n      tag_121\n        /* \"#utility.yul\":4173:4178   */\n      dup2\n        /* \"#utility.yul\":4155:4179   */\n      tag_61\n      jump\t// in\n    tag_121:\n        /* \"#utility.yul\":4150:4153   */\n      dup3\n        /* \"#utility.yul\":4143:4180   */\n      mstore\n        /* \"#utility.yul\":4068:4186   */\n      pop\n      pop\n      jump\t// out\n        /* \"#utility.yul\":4192:4290   */\n    tag_63:\n        /* \"#utility.yul\":4243:4249   */\n      0x00\n        /* \"#utility.yul\":4277:4282   */\n      dup2\n        /* \"#utility.yul\":4271:4283   */\n      mload\n        /* \"#utility.yul\":4261:4283   */\n      swap1\n      pop\n        /* \"#utility.yul\":4192:4290   */\n      swap2\n      swap1\n      pop\n      jump\t// out\n        /* \"#utility.yul\":4296:4464   */\n    tag_64:\n        /* \"#utility.yul\":4379:4390   */\n      0x00\n        /* \"#utility.yul\":4413:4419   */\n      dup3\n        /* \"#utility.yul\":4408:4411   */\n      dup3\n        /* \"#utility.yul\":4401:4420   */\n      mstore\n        /* \"#utility.yul\":4453:4457   */\n      0x20\n        /* \"#utility.yul\":4448:4451   */\n      dup3\n        /* \"#utility.yul\":4444:4458   */\n      add\n        /* \"#utility.yul\":4429:4458   */\n      swap1\n      pop\n        /* \"#utility.yul\":4296:4464   */\n      swap3\n      swap2\n      pop\n      pop\n      jump\t// out\n        /* \"#utility.yul\":4470:4716   */\n    tag_65:\n        /* \"#utility.yul\":4551:4552   */\n      0x00\n        /* \"#utility.yul\":4561:4674   */\n    tag_125:\n        /* \"#utility.yul\":4575:4581   */\n      dup4\n        /* \"#utility.yul\":4572:4573   */\n      dup2\n        /* \"#utility.yul\":4569:4582   */\n      lt\n        /* \"#utility.yul\":4561:4674   */\n      iszero\n      tag_127\n      jumpi\n        /* \"#utility.yul\":4660:4661   */\n      dup1\n        /* \"#utility.yul\":4655:4658   */\n      dup3\n        /* \"#utility.yul\":4651:4662   */\n      add\n        /* \"#utility.yul\":4645:4663   */\n      mload\n        /* \"#utility.yul\":4641:4642   */\n      dup2\n        /* \"#utility.yul\":4636:4639   */\n      dup5\n        /* \"#utility.yul\":4632:4643   */\n      add\n        /* \"#utility.yul\":4625:4664   */\n      mstore\n        /* \"#utility.yul\":4597:4599   */\n      0x20\n        /* \"#utility.yul\":4594:4595   */\n      dup2\n        /* \"#utility.yul\":4590:4600   */\n      add\n        /* \"#utility.yul\":4585:4600   */\n      swap1\n      pop\n        /* \"#utility.yul\":4561:4674   */\n      jump(tag_125)\n    tag_127:\n        /* \"#utility.yul\":4708:4709   */\n      0x00\n        /* \"#utility.yul\":4699:4705   */\n      dup5\n        /* \"#utility.yul\":4694:4697   */\n      dup5\n        /* \"#utility.yul\":4690:4706   */\n      add\n        /* \"#utility.yul\":4683:4710   */\n      mstore\n        /* \"#utility.yul\":4532:4716   */\n      pop\n        /* \"#utility.yul\":4470:4716   */\n      pop\n      pop\n      pop\n      jump\t// out\n        /* \"#utility.yul\":4722:4824   */\n    tag_66:\n        /* \"#utility.yul\":4763:4769   */\n      0x00\n        /* \"#utility.yul\":4814:4816   */\n      0x1f\n        /* \"#utility.yul\":4810:4817   */\n      not\n        /* \"#utility.yul\":4805:4807   */\n      0x1f\n        /* \"#utility.yul\":4798:4803   */\n      dup4\n        /* \"#utility.yul\":4794:4808   */\n      add\n        /* \"#utility.yul\":4790:4818   */\n      and\n        /* \"#utility.yul\":4780:4818   */\n      swap1\n      pop\n        /* \"#utility.yul\":4722:4824   */\n      swap2\n      swap1\n      pop\n      jump\t// out\n        /* \"#utility.yul\":4830:5203   */\n    tag_67:\n        /* \"#utility.yul\":4916:4919   */\n      0x00\n        /* \"#utility.yul\":4944:4982   */\n      tag_130\n        /* \"#utility.yul\":4976:4981   */\n      dup3\n        /* \"#utility.yul\":4944:4982   */\n      tag_63\n      jump\t// in\n    tag_130:\n        /* \"#utility.yul\":4998:5068   */\n      tag_131\n        /* \"#utility.yul\":5061:5067   */\n      dup2\n        /* \"#utility.yul\":5056:5059   */\n      dup6\n        /* \"#utility.yul\":4998:5068   */\n      tag_64\n      jump\t// in\n    tag_131:\n        /* \"#utility.yul\":4991:5068   */\n      swap4\n      pop\n        /* \"#utility.yul\":5077:5142   */\n      tag_132\n        /* \"#utility.yul\":5135:5141   */\n      dup2\n        /* \"#utility.yul\":5130:5133   */\n      dup6\n        /* \"#utility.yul\":5123:5127   */\n      0x20\n        /* \"#utility.yul\":5116:5121   */\n      dup7\n        /* \"#utility.yul\":5112:5128   */\n      add\n        /* \"#utility.yul\":5077:5142   */\n      tag_65\n      jump\t// in\n    tag_132:\n        /* \"#utility.yul\":5167:5196   */\n      tag_133\n        /* \"#utility.yul\":5189:5195   */\n      dup2\n        /* \"#utility.yul\":5167:5196   */\n      tag_66\n      jump\t// in\n    tag_133:\n        /* \"#utility.yul\":5162:5165   */\n      dup5\n        /* \"#utility.yul\":5158:5197   */\n      add\n        /* \"#utility.yul\":5151:5197   */\n      swap2\n      pop\n        /* \"#utility.yul\":4920:5203   */\n      pop\n        /* \"#utility.yul\":4830:5203   */\n      swap3\n      swap2\n      pop\n      pop\n      jump\t// out\n        /* \"#utility.yul\":5209:5738   */\n    tag_29:\n        /* \"#utility.yul\":5376:5380   */\n      0x00\n        /* \"#utility.yul\":5414:5416   */\n      0x60\n        /* \"#utility.yul\":5403:5412   */\n      dup3\n        /* \"#utility.yul\":5399:5417   */\n      add\n        /* \"#utility.yul\":5391:5417   */\n      swap1\n      pop\n        /* \"#utility.yul\":5427:5498   */\n      tag_135\n        /* \"#utility.yul\":5495:5496   */\n      0x00\n        /* \"#utility.yul\":5484:5493   */\n      dup4\n        /* \"#utility.yul\":5480:5497   */\n      add\n        /* \"#utility.yul\":5471:5477   */\n      dup7\n        /* \"#utility.yul\":5427:5498   */\n      tag_62\n      jump\t// in\n    tag_135:\n        /* \"#utility.yul\":5508:5580   */\n      tag_136\n        /* \"#utility.yul\":5576:5578   */\n      0x20\n        /* \"#utility.yul\":5565:5574   */\n      dup4\n        /* \"#utility.yul\":5561:5579   */\n      add\n        /* \"#utility.yul\":5552:5558   */\n      dup6\n        /* \"#utility.yul\":5508:5580   */\n      tag_59\n      jump\t// in\n    tag_136:\n        /* \"#utility.yul\":5627:5636   */\n      dup2\n        /* \"#utility.yul\":5621:5625   */\n      dup2\n        /* \"#utility.yul\":5617:5637   */\n      sub\n        /* \"#utility.yul\":5612:5614   */\n      0x40\n        /* \"#utility.yul\":5601:5610   */\n      dup4\n        /* \"#utility.yul\":5597:5615   */\n      add\n        /* \"#utility.yul\":5590:5638   */\n      mstore\n        /* \"#utility.yul\":5655:5731   */\n      tag_137\n        /* \"#utility.yul\":5726:5730   */\n      dup2\n        /* \"#utility.yul\":5717:5723   */\n      dup5\n        /* \"#utility.yul\":5655:5731   */\n      tag_67\n      jump\t// in\n    tag_137:\n        /* \"#utility.yul\":5647:5731   */\n      swap1\n      pop\n        /* \"#utility.yul\":5209:5738   */\n      swap5\n      swap4\n      pop\n      pop\n      pop\n      pop\n      jump\t// out\n        /* \"#utility.yul\":5744:5834   */\n    tag_68:\n        /* \"#utility.yul\":5778:5785   */\n      0x00\n        /* \"#utility.yul\":5821:5826   */\n      dup2\n        /* \"#utility.yul\":5814:5827   */\n      iszero\n        /* \"#utility.yul\":5807:5828   */\n      iszero\n        /* \"#utility.yul\":5796:5828   */\n      swap1\n      pop\n        /* \"#utility.yul\":5744:5834   */\n      swap2\n      swap1\n      pop\n      jump\t// out\n        /* \"#utility.yul\":5840:5956   */\n    tag_69:\n        /* \"#utility.yul\":5910:5931   */\n      tag_140\n        /* \"#utility.yul\":5925:5930   */\n      dup2\n        /* \"#utility.yul\":5910:5931   */\n      tag_68\n      jump\t// in\n    tag_140:\n        /* \"#utility.yul\":5903:5908   */\n      dup2\n        /* \"#utility.yul\":5900:5932   */\n      eq\n        /* \"#utility.yul\":5890:5950   */\n      tag_141\n      jumpi\n        /* \"#utility.yul\":5946:5947   */\n      0x00\n        /* \"#utility.yul\":5943:5944   */\n      dup1\n        /* \"#utility.yul\":5936:5948   */\n      revert\n        /* \"#utility.yul\":5890:5950   */\n    tag_141:\n        /* \"#utility.yul\":5840:5956   */\n      pop\n      jump\t// out\n        /* \"#utility.yul\":5962:6099   */\n    tag_70:\n        /* \"#utility.yul\":6016:6021   */\n      0x00\n        /* \"#utility.yul\":6047:6053   */\n      dup2\n        /* \"#utility.yul\":6041:6054   */\n      mload\n        /* \"#utility.yul\":6032:6054   */\n      swap1\n      pop\n        /* \"#utility.yul\":6063:6093   */\n      tag_143\n        /* \"#utility.yul\":6087:6092   */\n      dup2\n        /* \"#utility.yul\":6063:6093   */\n      tag_69\n      jump\t// in\n    tag_143:\n        /* \"#utility.yul\":5962:6099   */\n      swap3\n      swap2\n      pop\n      pop\n      jump\t// out\n        /* \"#utility.yul\":6105:6450   */\n    tag_33:\n        /* \"#utility.yul\":6172:6178   */\n      0x00\n        /* \"#utility.yul\":6221:6223   */\n      0x20\n        /* \"#utility.yul\":6209:6218   */\n      dup3\n        /* \"#utility.yul\":6200:6207   */\n      dup5\n        /* \"#utility.yul\":6196:6219   */\n      sub\n        /* \"#utility.yul\":6192:6224   */\n      slt\n        /* \"#utility.yul\":6189:6308   */\n      iszero\n      tag_145\n      jumpi\n        /* \"#utility.yul\":6227:6306   */\n      tag_146\n      tag_47\n      jump\t// in\n    tag_146:\n        /* \"#utility.yul\":6189:6308   */\n    tag_145:\n        /* \"#utility.yul\":6347:6348   */\n      0x00\n        /* \"#utility.yul\":6372:6433   */\n      tag_147\n        /* \"#utility.yul\":6425:6432   */\n      dup5\n        /* \"#utility.yul\":6416:6422   */\n      dup3\n        /* \"#utility.yul\":6405:6414   */\n      dup6\n        /* \"#utility.yul\":6401:6423   */\n      add\n        /* \"#utility.yul\":6372:6433   */\n      tag_70\n      jump\t// in\n    tag_147:\n        /* \"#utility.yul\":6362:6433   */\n      swap2\n      pop\n        /* \"#utility.yul\":6318:6443   */\n      pop\n        /* \"#utility.yul\":6105:6450   */\n      swap3\n      swap2\n      pop\n      pop\n      jump\t// out\n        /* \"#utility.yul\":6456:6636   */\n    tag_71:\n        /* \"#utility.yul\":6504:6581   */\n      0x4e487b7100000000000000000000000000000000000000000000000000000000\n        /* \"#utility.yul\":6501:6502   */\n      0x00\n        /* \"#utility.yul\":6494:6582   */\n      mstore\n        /* \"#utility.yul\":6601:6605   */\n      0x11\n        /* \"#utility.yul\":6598:6599   */\n      0x04\n        /* \"#utility.yul\":6591:6606   */\n      mstore\n        /* \"#utility.yul\":6625:6629   */\n      0x24\n        /* \"#utility.yul\":6622:6623   */\n      0x00\n        /* \"#utility.yul\":6615:6630   */\n      revert\n        /* \"#utility.yul\":6642:6833   */\n    tag_37:\n        /* \"#utility.yul\":6682:6685   */\n      0x00\n        /* \"#utility.yul\":6701:6721   */\n      tag_150\n        /* \"#utility.yul\":6719:6720   */\n      dup3\n        /* \"#utility.yul\":6701:6721   */\n      tag_52\n      jump\t// in\n    tag_150:\n        /* \"#utility.yul\":6696:6721   */\n      swap2\n      pop\n        /* \"#utility.yul\":6735:6755   */\n      tag_151\n        /* \"#utility.yul\":6753:6754   */\n      dup4\n        /* \"#utility.yul\":6735:6755   */\n      tag_52\n      jump\t// in\n    tag_151:\n        /* \"#utility.yul\":6730:6755   */\n      swap3\n      pop\n        /* \"#utility.yul\":6778:6779   */\n      dup3\n        /* \"#utility.yul\":6775:6776   */\n      dup3\n        /* \"#utility.yul\":6771:6780   */\n      add\n        /* \"#utility.yul\":6764:6780   */\n      swap1\n      pop\n        /* \"#utility.yul\":6799:6802   */\n      dup1\n        /* \"#utility.yul\":6796:6797   */\n      dup3\n        /* \"#utility.yul\":6793:6803   */\n      gt\n        /* \"#utility.yul\":6790:6826   */\n      iszero\n      tag_152\n      jumpi\n        /* \"#utility.yul\":6806:6824   */\n      tag_153\n      tag_71\n      jump\t// in\n    tag_153:\n        /* \"#utility.yul\":6790:6826   */\n    tag_152:\n        /* \"#utility.yul\":6642:6833   */\n      swap3\n      swap2\n      pop\n      pop\n      jump\t// out\n        /* \"#utility.yul\":6839:7392   */\n    tag_42:\n        /* \"#utility.yul\":7016:7020   */\n      0x00\n        /* \"#utility.yul\":7054:7057   */\n      0x80\n        /* \"#utility.yul\":7043:7052   */\n      dup3\n        /* \"#utility.yul\":7039:7058   */\n      add\n        /* \"#utility.yul\":7031:7058   */\n      swap1\n      pop\n        /* \"#utility.yul\":7068:7139   */\n      tag_155\n        /* \"#utility.yul\":7136:7137   */\n      0x00\n        /* \"#utility.yul\":7125:7134   */\n      dup4\n        /* \"#utility.yul\":7121:7138   */\n      add\n        /* \"#utility.yul\":7112:7118   */\n      dup8\n        /* \"#utility.yul\":7068:7139   */\n      tag_55\n      jump\t// in\n    tag_155:\n        /* \"#utility.yul\":7149:7221   */\n      tag_156\n        /* \"#utility.yul\":7217:7219   */\n      0x20\n        /* \"#utility.yul\":7206:7215   */\n      dup4\n        /* \"#utility.yul\":7202:7220   */\n      add\n        /* \"#utility.yul\":7193:7199   */\n      dup7\n        /* \"#utility.yul\":7149:7221   */\n      tag_59\n      jump\t// in\n    tag_156:\n        /* \"#utility.yul\":7231:7303   */\n      tag_157\n        /* \"#utility.yul\":7299:7301   */\n      0x40\n        /* \"#utility.yul\":7288:7297   */\n      dup4\n        /* \"#utility.yul\":7284:7302   */\n      add\n        /* \"#utility.yul\":7275:7281   */\n      dup6\n        /* \"#utility.yul\":7231:7303   */\n      tag_62\n      jump\t// in\n    tag_157:\n        /* \"#utility.yul\":7313:7385   */\n      tag_158\n        /* \"#utility.yul\":7381:7383   */\n      0x60\n        /* \"#utility.yul\":7370:7379   */\n      dup4\n        /* \"#utility.yul\":7366:7384   */\n      add\n        /* \"#utility.yul\":7357:7363   */\n      dup5\n        /* \"#utility.yul\":7313:7385   */\n      tag_59\n      jump\t// in\n    tag_158:\n        /* \"#utility.yul\":6839:7392   */\n      swap6\n      swap5\n      pop\n      pop\n      pop\n      pop\n      pop\n      jump\t// out\n        /* \"#utility.yul\":7398:7477   */\n    tag_72:\n        /* \"#utility.yul\":7437:7444   */\n      0x00\n        /* \"#utility.yul\":7466:7471   */\n      dup2\n        /* \"#utility.yul\":7455:7471   */\n      swap1\n      pop\n        /* \"#utility.yul\":7398:7477   */\n      swap2\n      swap1\n      pop\n      jump\t// out\n        /* \"#utility.yul\":7483:7640   */\n    tag_73:\n        /* \"#utility.yul\":7588:7633   */\n      tag_161\n        /* \"#utility.yul\":7608:7632   */\n      tag_162\n        /* \"#utility.yul\":7626:7631   */\n      dup3\n        /* \"#utility.yul\":7608:7632   */\n      tag_49\n      jump\t// in\n    tag_162:\n        /* \"#utility.yul\":7588:7633   */\n      tag_72\n      jump\t// in\n    tag_161:\n        /* \"#utility.yul\":7583:7586   */\n      dup3\n        /* \"#utility.yul\":7576:7634   */\n      mstore\n        /* \"#utility.yul\":7483:7640   */\n      pop\n      pop\n      jump\t// out\n        /* \"#utility.yul\":7646:7725   */\n    tag_74:\n        /* \"#utility.yul\":7685:7692   */\n      0x00\n        /* \"#utility.yul\":7714:7719   */\n      dup2\n        /* \"#utility.yul\":7703:7719   */\n      swap1\n      pop\n        /* \"#utility.yul\":7646:7725   */\n      swap2\n      swap1\n      pop\n      jump\t// out\n        /* \"#utility.yul\":7731:7888   */\n    tag_75:\n        /* \"#utility.yul\":7836:7881   */\n      tag_165\n        /* \"#utility.yul\":7856:7880   */\n      tag_166\n        /* \"#utility.yul\":7874:7879   */\n      dup3\n        /* \"#utility.yul\":7856:7880   */\n      tag_52\n      jump\t// in\n    tag_166:\n        /* \"#utility.yul\":7836:7881   */\n      tag_74\n      jump\t// in\n    tag_165:\n        /* \"#utility.yul\":7831:7834   */\n      dup3\n        /* \"#utility.yul\":7824:7882   */\n      mstore\n        /* \"#utility.yul\":7731:7888   */\n      pop\n      pop\n      jump\t// out\n        /* \"#utility.yul\":7894:8291   */\n    tag_45:\n        /* \"#utility.yul\":8034:8037   */\n      0x00\n        /* \"#utility.yul\":8049:8124   */\n      tag_168\n        /* \"#utility.yul\":8120:8123   */\n      dup3\n        /* \"#utility.yul\":8111:8117   */\n      dup6\n        /* \"#utility.yul\":8049:8124   */\n      tag_73\n      jump\t// in\n    tag_168:\n        /* \"#utility.yul\":8149:8151   */\n      0x20\n        /* \"#utility.yul\":8144:8147   */\n      dup3\n        /* \"#utility.yul\":8140:8152   */\n      add\n        /* \"#utility.yul\":8133:8152   */\n      swap2\n      pop\n        /* \"#utility.yul\":8162:8237   */\n      tag_169\n        /* \"#utility.yul\":8233:8236   */\n      dup3\n        /* \"#utility.yul\":8224:8230   */\n      dup5\n        /* \"#utility.yul\":8162:8237   */\n      tag_75\n      jump\t// in\n    tag_169:\n        /* \"#utility.yul\":8262:8264   */\n      0x20\n        /* \"#utility.yul\":8257:8260   */\n      dup3\n        /* \"#utility.yul\":8253:8265   */\n      add\n        /* \"#utility.yul\":8246:8265   */\n      swap2\n      pop\n        /* \"#utility.yul\":8282:8285   */\n      dup2\n        /* \"#utility.yul\":8275:8285   */\n      swap1\n      pop\n        /* \"#utility.yul\":7894:8291   */\n      swap4\n      swap3\n      pop\n      pop\n      pop\n      jump\t// out\n\n    auxdata: 0xa26469706673582212201afee73adfa227255e4cdad4f947efbdc4906d769e2af09ab83ae4d8d584801964736f6c63430008110033\n}\n",
				"bytecode": {
					"linkReferences": {},
					"object": "60c060405234801561001057600080fd5b5073dd3782915140c8f3b190b5d67eac6dc5760c46e973a36085f69e2889c224210f603d836748e7dc00888173ffffffffffffffffffffffffffffffffffffffff1660a08173ffffffffffffffffffffffffffffffffffffffff16815250508073ffffffffffffffffffffffffffffffffffffffff1660808173ffffffffffffffffffffffffffffffffffffffff168152505050507f6c3699283bda56ad74f6b855546325b68d482e983852a7a82979cc4807b641f460001b60018190555067016345785d8a000060028190555060805160a05161078161010960003960008181608901526101850152600061014901526107816000f3fe608060405234801561001057600080fd5b50600436106100365760003560e01c806394985ddd1461003b578063b37217a414610057575b600080fd5b61005560048036038101906100509190610375565b610087565b005b610071600480360381019061006c91906103b5565b610123565b60405161007e91906103f1565b60405180910390f35b7f000000000000000000000000000000000000000000000000000000000000000073ffffffffffffffffffffffffffffffffffffffff163373ffffffffffffffffffffffffffffffffffffffff1614610115576040517f08c379a000000000000000000000000000000000000000000000000000000000815260040161010c90610469565b60405180910390fd5b61011f828261013a565b5050565b6000610133600154600254610145565b9050919050565b806003819055505050565b60007f000000000000000000000000000000000000000000000000000000000000000073ffffffffffffffffffffffffffffffffffffffff16634000aea07f0000000000000000000000000000000000000000000000000000000000000000848660006040516020016101b9929190610498565b6040516020818303038152906040526040518463ffffffff1660e01b81526004016101e693929190610592565b6020604051808303816000875af1158015610205573d6000803e3d6000fd5b505050506040513d601f19601f820116820180604052508101906102299190610608565b50600061024b8460003060008089815260200190815260200160002054610295565b905060016000808681526020019081526020016000205461026c9190610664565b6000808681526020019081526020016000208190555061028c84826102d1565b91505092915050565b6000848484846040516020016102ae9493929190610698565b6040516020818303038152906040528051906020012060001c9050949350505050565b600082826040516020016102e692919061071f565b60405160208183030381529060405280519060200120905092915050565b600080fd5b6000819050919050565b61031c81610309565b811461032757600080fd5b50565b60008135905061033981610313565b92915050565b6000819050919050565b6103528161033f565b811461035d57600080fd5b50565b60008135905061036f81610349565b92915050565b6000806040838503121561038c5761038b610304565b5b600061039a8582860161032a565b92505060206103ab85828601610360565b9150509250929050565b6000602082840312156103cb576103ca610304565b5b60006103d984828501610360565b91505092915050565b6103eb81610309565b82525050565b600060208201905061040660008301846103e2565b92915050565b600082825260208201905092915050565b7f4f6e6c7920565246436f6f7264696e61746f722063616e2066756c66696c6c00600082015250565b6000610453601f8361040c565b915061045e8261041d565b602082019050919050565b6000602082019050818103600083015261048281610446565b9050919050565b6104928161033f565b82525050565b60006040820190506104ad60008301856103e2565b6104ba6020830184610489565b9392505050565b600073ffffffffffffffffffffffffffffffffffffffff82169050919050565b60006104ec826104c1565b9050919050565b6104fc816104e1565b82525050565b600081519050919050565b600082825260208201905092915050565b60005b8381101561053c578082015181840152602081019050610521565b60008484015250505050565b6000601f19601f8301169050919050565b600061056482610502565b61056e818561050d565b935061057e81856020860161051e565b61058781610548565b840191505092915050565b60006060820190506105a760008301866104f3565b6105b46020830185610489565b81810360408301526105c68184610559565b9050949350505050565b60008115159050919050565b6105e5816105d0565b81146105f057600080fd5b50565b600081519050610602816105dc565b92915050565b60006020828403121561061e5761061d610304565b5b600061062c848285016105f3565b91505092915050565b7f4e487b7100000000000000000000000000000000000000000000000000000000600052601160045260246000fd5b600061066f8261033f565b915061067a8361033f565b925082820190508082111561069257610691610635565b5b92915050565b60006080820190506106ad60008301876103e2565b6106ba6020830186610489565b6106c760408301856104f3565b6106d46060830184610489565b95945050505050565b6000819050919050565b6106f86106f382610309565b6106dd565b82525050565b6000819050919050565b6107196107148261033f565b6106fe565b82525050565b600061072b82856106e7565b60208201915061073b8284610708565b602082019150819050939250505056fea26469706673582212201afee73adfa227255e4cdad4f947efbdc4906d769e2af09ab83ae4d8d584801964736f6c63430008110033",
					"opcodes": "PUSH1 0xC0 PUSH1 0x40 MSTORE CALLVALUE DUP1 ISZERO PUSH2 0x10 JUMPI PUSH1 0x0 DUP1 REVERT JUMPDEST POP PUSH20 0xDD3782915140C8F3B190B5D67EAC6DC5760C46E9 PUSH20 0xA36085F69E2889C224210F603D836748E7DC0088 DUP2 PUSH20 0xFFFFFFFFFFFFFFFFFFFFFFFFFFFFFFFFFFFFFFFF AND PUSH1 0xA0 DUP2 PUSH20 0xFFFFFFFFFFFFFFFFFFFFFFFFFFFFFFFFFFFFFFFF AND DUP2 MSTORE POP POP DUP1 PUSH20 0xFFFFFFFFFFFFFFFFFFFFFFFFFFFFFFFFFFFFFFFF AND PUSH1 0x80 DUP2 PUSH20 0xFFFFFFFFFFFFFFFFFFFFFFFFFFFFFFFFFFFFFFFF AND DUP2 MSTORE POP POP POP POP PUSH32 0x6C3699283BDA56AD74F6B855546325B68D482E983852A7A82979CC4807B641F4 PUSH1 0x0 SHL PUSH1 0x1 DUP2 SWAP1 SSTORE POP PUSH8 0x16345785D8A0000 PUSH1 0x2 DUP2 SWAP1 SSTORE POP PUSH1 0x80 MLOAD PUSH1 0xA0 MLOAD PUSH2 0x781 PUSH2 0x109 PUSH1 0x0 CODECOPY PUSH1 0x0 DUP2 DUP2 PUSH1 0x89 ADD MSTORE PUSH2 0x185 ADD MSTORE PUSH1 0x0 PUSH2 0x149 ADD MSTORE PUSH2 0x781 PUSH1 0x0 RETURN INVALID PUSH1 0x80 PUSH1 0x40 MSTORE CALLVALUE DUP1 ISZERO PUSH2 0x10 JUMPI PUSH1 0x0 DUP1 REVERT JUMPDEST POP PUSH1 0x4 CALLDATASIZE LT PUSH2 0x36 JUMPI PUSH1 0x0 CALLDATALOAD PUSH1 0xE0 SHR DUP1 PUSH4 0x94985DDD EQ PUSH2 0x3B JUMPI DUP1 PUSH4 0xB37217A4 EQ PUSH2 0x57 JUMPI JUMPDEST PUSH1 0x0 DUP1 REVERT JUMPDEST PUSH2 0x55 PUSH1 0x4 DUP1 CALLDATASIZE SUB DUP2 ADD SWAP1 PUSH2 0x50 SWAP2 SWAP1 PUSH2 0x375 JUMP JUMPDEST PUSH2 0x87 JUMP JUMPDEST STOP JUMPDEST PUSH2 0x71 PUSH1 0x4 DUP1 CALLDATASIZE SUB DUP2 ADD SWAP1 PUSH2 0x6C SWAP2 SWAP1 PUSH2 0x3B5 JUMP JUMPDEST PUSH2 0x123 JUMP JUMPDEST PUSH1 0x40 MLOAD PUSH2 0x7E SWAP2 SWAP1 PUSH2 0x3F1 JUMP JUMPDEST PUSH1 0x40 MLOAD DUP1 SWAP2 SUB SWAP1 RETURN JUMPDEST PUSH32 0x0 PUSH20 0xFFFFFFFFFFFFFFFFFFFFFFFFFFFFFFFFFFFFFFFF AND CALLER PUSH20 0xFFFFFFFFFFFFFFFFFFFFFFFFFFFFFFFFFFFFFFFF AND EQ PUSH2 0x115 JUMPI PUSH1 0x40 MLOAD PUSH32 0x8C379A000000000000000000000000000000000000000000000000000000000 DUP2 MSTORE PUSH1 0x4 ADD PUSH2 0x10C SWAP1 PUSH2 0x469 JUMP JUMPDEST PUSH1 0x40 MLOAD DUP1 SWAP2 SUB SWAP1 REVERT JUMPDEST PUSH2 0x11F DUP3 DUP3 PUSH2 0x13A JUMP JUMPDEST POP POP JUMP JUMPDEST PUSH1 0x0 PUSH2 0x133 PUSH1 0x1 SLOAD PUSH1 0x2 SLOAD PUSH2 0x145 JUMP JUMPDEST SWAP1 POP SWAP2 SWAP1 POP JUMP JUMPDEST DUP1 PUSH1 0x3 DUP2 SWAP1 SSTORE POP POP POP JUMP JUMPDEST PUSH1 0x0 PUSH32 0x0 PUSH20 0xFFFFFFFFFFFFFFFFFFFFFFFFFFFFFFFFFFFFFFFF AND PUSH4 0x4000AEA0 PUSH32 0x0 DUP5 DUP7 PUSH1 0x0 PUSH1 0x40 MLOAD PUSH1 0x20 ADD PUSH2 0x1B9 SWAP3 SWAP2 SWAP1 PUSH2 0x498 JUMP JUMPDEST PUSH1 0x40 MLOAD PUSH1 0x20 DUP2 DUP4 SUB SUB DUP2 MSTORE SWAP1 PUSH1 0x40 MSTORE PUSH1 0x40 MLOAD DUP5 PUSH4 0xFFFFFFFF AND PUSH1 0xE0 SHL DUP2 MSTORE PUSH1 0x4 ADD PUSH2 0x1E6 SWAP4 SWAP3 SWAP2 SWAP1 PUSH2 0x592 JUMP JUMPDEST PUSH1 0x20 PUSH1 0x40 MLOAD DUP1 DUP4 SUB DUP2 PUSH1 0x0 DUP8 GAS CALL ISZERO DUP1 ISZERO PUSH2 0x205 JUMPI RETURNDATASIZE PUSH1 0x0 DUP1 RETURNDATACOPY RETURNDATASIZE PUSH1 0x0 REVERT JUMPDEST POP POP POP POP PUSH1 0x40 MLOAD RETURNDATASIZE PUSH1 0x1F NOT PUSH1 0x1F DUP3 ADD AND DUP3 ADD DUP1 PUSH1 0x40 MSTORE POP DUP2 ADD SWAP1 PUSH2 0x229 SWAP2 SWAP1 PUSH2 0x608 JUMP JUMPDEST POP PUSH1 0x0 PUSH2 0x24B DUP5 PUSH1 0x0 ADDRESS PUSH1 0x0 DUP1 DUP10 DUP2 MSTORE PUSH1 0x20 ADD SWAP1 DUP2 MSTORE PUSH1 0x20 ADD PUSH1 0x0 KECCAK256 SLOAD PUSH2 0x295 JUMP JUMPDEST SWAP1 POP PUSH1 0x1 PUSH1 0x0 DUP1 DUP7 DUP2 MSTORE PUSH1 0x20 ADD SWAP1 DUP2 MSTORE PUSH1 0x20 ADD PUSH1 0x0 KECCAK256 SLOAD PUSH2 0x26C SWAP2 SWAP1 PUSH2 0x664 JUMP JUMPDEST PUSH1 0x0 DUP1 DUP7 DUP2 MSTORE PUSH1 0x20 ADD SWAP1 DUP2 MSTORE PUSH1 0x20 ADD PUSH1 0x0 KECCAK256 DUP2 SWAP1 SSTORE POP PUSH2 0x28C DUP5 DUP3 PUSH2 0x2D1 JUMP JUMPDEST SWAP2 POP POP SWAP3 SWAP2 POP POP JUMP JUMPDEST PUSH1 0x0 DUP5 DUP5 DUP5 DUP5 PUSH1 0x40 MLOAD PUSH1 0x20 ADD PUSH2 0x2AE SWAP5 SWAP4 SWAP3 SWAP2 SWAP1 PUSH2 0x698 JUMP JUMPDEST PUSH1 0x40 MLOAD PUSH1 0x20 DUP2 DUP4 SUB SUB DUP2 MSTORE SWAP1 PUSH1 0x40 MSTORE DUP1 MLOAD SWAP1 PUSH1 0x20 ADD KECCAK256 PUSH1 0x0 SHR SWAP1 POP SWAP5 SWAP4 POP POP POP POP JUMP JUMPDEST PUSH1 0x0 DUP3 DUP3 PUSH1 0x40 MLOAD PUSH1 0x20 ADD PUSH2 0x2E6 SWAP3 SWAP2 SWAP1 PUSH2 0x71F JUMP JUMPDEST PUSH1 0x40 MLOAD PUSH1 0x20 DUP2 DUP4 SUB SUB DUP2 MSTORE SWAP1 PUSH1 0x40 MSTORE DUP1 MLOAD SWAP1 PUSH1 0x20 ADD KECCAK256 SWAP1 POP SWAP3 SWAP2 POP POP JUMP JUMPDEST PUSH1 0x0 DUP1 REVERT JUMPDEST PUSH1 0x0 DUP2 SWAP1 POP SWAP2 SWAP1 POP JUMP JUMPDEST PUSH2 0x31C DUP2 PUSH2 0x309 JUMP JUMPDEST DUP2 EQ PUSH2 0x327 JUMPI PUSH1 0x0 DUP1 REVERT JUMPDEST POP JUMP JUMPDEST PUSH1 0x0 DUP2 CALLDATALOAD SWAP1 POP PUSH2 0x339 DUP2 PUSH2 0x313 JUMP JUMPDEST SWAP3 SWAP2 POP POP JUMP JUMPDEST PUSH1 0x0 DUP2 SWAP1 POP SWAP2 SWAP1 POP JUMP JUMPDEST PUSH2 0x352 DUP2 PUSH2 0x33F JUMP JUMPDEST DUP2 EQ PUSH2 0x35D JUMPI PUSH1 0x0 DUP1 REVERT JUMPDEST POP JUMP JUMPDEST PUSH1 0x0 DUP2 CALLDATALOAD SWAP1 POP PUSH2 0x36F DUP2 PUSH2 0x349 JUMP JUMPDEST SWAP3 SWAP2 POP POP JUMP JUMPDEST PUSH1 0x0 DUP1 PUSH1 0x40 DUP4 DUP6 SUB SLT ISZERO PUSH2 0x38C JUMPI PUSH2 0x38B PUSH2 0x304 JUMP JUMPDEST JUMPDEST PUSH1 0x0 PUSH2 0x39A DUP6 DUP3 DUP7 ADD PUSH2 0x32A JUMP JUMPDEST SWAP3 POP POP PUSH1 0x20 PUSH2 0x3AB DUP6 DUP3 DUP7 ADD PUSH2 0x360 JUMP JUMPDEST SWAP2 POP POP SWAP3 POP SWAP3 SWAP1 POP JUMP JUMPDEST PUSH1 0x0 PUSH1 0x20 DUP3 DUP5 SUB SLT ISZERO PUSH2 0x3CB JUMPI PUSH2 0x3CA PUSH2 0x304 JUMP JUMPDEST JUMPDEST PUSH1 0x0 PUSH2 0x3D9 DUP5 DUP3 DUP6 ADD PUSH2 0x360 JUMP JUMPDEST SWAP2 POP POP SWAP3 SWAP2 POP POP JUMP JUMPDEST PUSH2 0x3EB DUP2 PUSH2 0x309 JUMP JUMPDEST DUP3 MSTORE POP POP JUMP JUMPDEST PUSH1 0x0 PUSH1 0x20 DUP3 ADD SWAP1 POP PUSH2 0x406 PUSH1 0x0 DUP4 ADD DUP5 PUSH2 0x3E2 JUMP JUMPDEST SWAP3 SWAP2 POP POP JUMP JUMPDEST PUSH1 0x0 DUP3 DUP3 MSTORE PUSH1 0x20 DUP3 ADD SWAP1 POP SWAP3 SWAP2 POP POP JUMP JUMPDEST PUSH32 0x4F6E6C7920565246436F6F7264696E61746F722063616E2066756C66696C6C00 PUSH1 0x0 DUP3 ADD MSTORE POP JUMP JUMPDEST PUSH1 0x0 PUSH2 0x453 PUSH1 0x1F DUP4 PUSH2 0x40C JUMP JUMPDEST SWAP2 POP PUSH2 0x45E DUP3 PUSH2 0x41D JUMP JUMPDEST PUSH1 0x20 DUP3 ADD SWAP1 POP SWAP2 SWAP1 POP JUMP JUMPDEST PUSH1 0x0 PUSH1 0x20 DUP3 ADD SWAP1 POP DUP2 DUP2 SUB PUSH1 0x0 DUP4 ADD MSTORE PUSH2 0x482 DUP2 PUSH2 0x446 JUMP JUMPDEST SWAP1 POP SWAP2 SWAP1 POP JUMP JUMPDEST PUSH2 0x492 DUP2 PUSH2 0x33F JUMP JUMPDEST DUP3 MSTORE POP POP JUMP JUMPDEST PUSH1 0x0 PUSH1 0x40 DUP3 ADD SWAP1 POP PUSH2 0x4AD PUSH1 0x0 DUP4 ADD DUP6 PUSH2 0x3E2 JUMP JUMPDEST PUSH2 0x4BA PUSH1 0x20 DUP4 ADD DUP5 PUSH2 0x489 JUMP JUMPDEST SWAP4 SWAP3 POP POP POP JUMP JUMPDEST PUSH1 0x0 PUSH20 0xFFFFFFFFFFFFFFFFFFFFFFFFFFFFFFFFFFFFFFFF DUP3 AND SWAP1 POP SWAP2 SWAP1 POP JUMP JUMPDEST PUSH1 0x0 PUSH2 0x4EC DUP3 PUSH2 0x4C1 JUMP JUMPDEST SWAP1 POP SWAP2 SWAP1 POP JUMP JUMPDEST PUSH2 0x4FC DUP2 PUSH2 0x4E1 JUMP JUMPDEST DUP3 MSTORE POP POP JUMP JUMPDEST PUSH1 0x0 DUP2 MLOAD SWAP1 POP SWAP2 SWAP1 POP JUMP JUMPDEST PUSH1 0x0 DUP3 DUP3 MSTORE PUSH1 0x20 DUP3 ADD SWAP1 POP SWAP3 SWAP2 POP POP JUMP JUMPDEST PUSH1 0x0 JUMPDEST DUP4 DUP2 LT ISZERO PUSH2 0x53C JUMPI DUP1 DUP3 ADD MLOAD DUP2 DUP5 ADD MSTORE PUSH1 0x20 DUP2 ADD SWAP1 POP PUSH2 0x521 JUMP JUMPDEST PUSH1 0x0 DUP5 DUP5 ADD MSTORE POP POP POP POP JUMP JUMPDEST PUSH1 0x0 PUSH1 0x1F NOT PUSH1 0x1F DUP4 ADD AND SWAP1 POP SWAP2 SWAP1 POP JUMP JUMPDEST PUSH1 0x0 PUSH2 0x564 DUP3 PUSH2 0x502 JUMP JUMPDEST PUSH2 0x56E DUP2 DUP6 PUSH2 0x50D JUMP JUMPDEST SWAP4 POP PUSH2 0x57E DUP2 DUP6 PUSH1 0x20 DUP7 ADD PUSH2 0x51E JUMP JUMPDEST PUSH2 0x587 DUP2 PUSH2 0x548 JUMP JUMPDEST DUP5 ADD SWAP2 POP POP SWAP3 SWAP2 POP POP JUMP JUMPDEST PUSH1 0x0 PUSH1 0x60 DUP3 ADD SWAP1 POP PUSH2 0x5A7 PUSH1 0x0 DUP4 ADD DUP7 PUSH2 0x4F3 JUMP JUMPDEST PUSH2 0x5B4 PUSH1 0x20 DUP4 ADD DUP6 PUSH2 0x489 JUMP JUMPDEST DUP2 DUP2 SUB PUSH1 0x40 DUP4 ADD MSTORE PUSH2 0x5C6 DUP2 DUP5 PUSH2 0x559 JUMP JUMPDEST SWAP1 POP SWAP5 SWAP4 POP POP POP POP JUMP JUMPDEST PUSH1 0x0 DUP2 ISZERO ISZERO SWAP1 POP SWAP2 SWAP1 POP JUMP JUMPDEST PUSH2 0x5E5 DUP2 PUSH2 0x5D0 JUMP JUMPDEST DUP2 EQ PUSH2 0x5F0 JUMPI PUSH1 0x0 DUP1 REVERT JUMPDEST POP JUMP JUMPDEST PUSH1 0x0 DUP2 MLOAD SWAP1 POP PUSH2 0x602 DUP2 PUSH2 0x5DC JUMP JUMPDEST SWAP3 SWAP2 POP POP JUMP JUMPDEST PUSH1 0x0 PUSH1 0x20 DUP3 DUP5 SUB SLT ISZERO PUSH2 0x61E JUMPI PUSH2 0x61D PUSH2 0x304 JUMP JUMPDEST JUMPDEST PUSH1 0x0 PUSH2 0x62C DUP5 DUP3 DUP6 ADD PUSH2 0x5F3 JUMP JUMPDEST SWAP2 POP POP SWAP3 SWAP2 POP POP JUMP JUMPDEST PUSH32 0x4E487B7100000000000000000000000000000000000000000000000000000000 PUSH1 0x0 MSTORE PUSH1 0x11 PUSH1 0x4 MSTORE PUSH1 0x24 PUSH1 0x0 REVERT JUMPDEST PUSH1 0x0 PUSH2 0x66F DUP3 PUSH2 0x33F JUMP JUMPDEST SWAP2 POP PUSH2 0x67A DUP4 PUSH2 0x33F JUMP JUMPDEST SWAP3 POP DUP3 DUP3 ADD SWAP1 POP DUP1 DUP3 GT ISZERO PUSH2 0x692 JUMPI PUSH2 0x691 PUSH2 0x635 JUMP JUMPDEST JUMPDEST SWAP3 SWAP2 POP POP JUMP JUMPDEST PUSH1 0x0 PUSH1 0x80 DUP3 ADD SWAP1 POP PUSH2 0x6AD PUSH1 0x0 DUP4 ADD DUP8 PUSH2 0x3E2 JUMP JUMPDEST PUSH2 0x6BA PUSH1 0x20 DUP4 ADD DUP7 PUSH2 0x489 JUMP JUMPDEST PUSH2 0x6C7 PUSH1 0x40 DUP4 ADD DUP6 PUSH2 0x4F3 JUMP JUMPDEST PUSH2 0x6D4 PUSH1 0x60 DUP4 ADD DUP5 PUSH2 0x489 JUMP JUMPDEST SWAP6 SWAP5 POP POP POP POP POP JUMP JUMPDEST PUSH1 0x0 DUP2 SWAP1 POP SWAP2 SWAP1 POP JUMP JUMPDEST PUSH2 0x6F8 PUSH2 0x6F3 DUP3 PUSH2 0x309 JUMP JUMPDEST PUSH2 0x6DD JUMP JUMPDEST DUP3 MSTORE POP POP JUMP JUMPDEST PUSH1 0x0 DUP2 SWAP1 POP SWAP2 SWAP1 POP JUMP JUMPDEST PUSH2 0x719 PUSH2 0x714 DUP3 PUSH2 0x33F JUMP JUMPDEST PUSH2 0x6FE JUMP JUMPDEST DUP3 MSTORE POP POP JUMP JUMPDEST PUSH1 0x0 PUSH2 0x72B DUP3 DUP6 PUSH2 0x6E7 JUMP JUMPDEST PUSH1 0x20 DUP3 ADD SWAP2 POP PUSH2 0x73B DUP3 DUP5 PUSH2 0x708 JUMP JUMPDEST PUSH1 0x20 DUP3 ADD SWAP2 POP DUP2 SWAP1 POP SWAP4 SWAP3 POP POP POP JUMP INVALID LOG2 PUSH5 0x6970667358 0x22 SLT KECCAK256 BYTE INVALID 0xE7 GASPRICE 0xDF LOG2 0x27 0x25 0x5E 0x4C 0xDA 0xD4 0xF9 SELFBALANCE 0xEF 0xBD 0xC4 SWAP1 PUSH14 0x769E2AF09AB83AE4D8D584801964 PUSH20 0x6F6C634300081100330000000000000000000000 "
				},
				"gasEstimates": {
					"creation": {
						"codeDepositCost": "384200",
						"executionCost": "infinite",
						"totalCost": "infinite"
					},
					"external": {
						"getRandomNumber(uint256)": "infinite",
						"rawFulfillRandomness(bytes32,uint256)": "infinite"
					},
					"internal": {
						"fulfillRandomness(bytes32,uint256)": "22127"
					}
				},
				"methodIdentifiers": {
					"getRandomNumber(uint256)": "b37217a4",
					"rawFulfillRandomness(bytes32,uint256)": "94985ddd"
				}
			},
			"storageLayout": {
				"storage": [
					{
						"astId": 79,
						"contract": "docs.chain.link/samples/VRF/VRFv2Consumer.sol:RandomNumberConsumer",
						"label": "nonces",
						"offset": 0,
						"slot": "0",
						"type": "t_mapping(t_bytes32,t_uint256)"
					},
					{
						"astId": 272,
						"contract": "docs.chain.link/samples/VRF/VRFv2Consumer.sol:RandomNumberConsumer",
						"label": "keyHash",
						"offset": 0,
						"slot": "1",
						"type": "t_bytes32"
					},
					{
						"astId": 274,
						"contract": "docs.chain.link/samples/VRF/VRFv2Consumer.sol:RandomNumberConsumer",
						"label": "fee",
						"offset": 0,
						"slot": "2",
						"type": "t_uint256"
					},
					{
						"astId": 276,
						"contract": "docs.chain.link/samples/VRF/VRFv2Consumer.sol:RandomNumberConsumer",
						"label": "randomResult",
						"offset": 0,
						"slot": "3",
						"type": "t_uint256"
					}
				],
				"types": {
					"t_bytes32": {
						"encoding": "inplace",
						"label": "bytes32",
						"numberOfBytes": "32"
					},
					"t_mapping(t_bytes32,t_uint256)": {
						"encoding": "mapping",
						"key": "t_bytes32",
						"label": "mapping(bytes32 => uint256)",
						"numberOfBytes": "32",
						"value": "t_uint256"
					},
					"t_uint256": {
						"encoding": "inplace",
						"label": "uint256",
						"numberOfBytes": "32"
					}
				}
			},
			"userdoc": {
				"kind": "user",
				"methods": {},
				"version": 1
			}
		}
	}
}